{
  "contractName": "RequestChain",
  "abi": [
    {
      "inputs": [],
      "stateMutability": "nonpayable",
      "type": "constructor"
    },
    {
      "anonymous": false,
      "inputs": [
        {
          "indexed": true,
          "internalType": "address",
          "name": "owner",
          "type": "address"
        },
        {
          "indexed": true,
          "internalType": "address",
          "name": "spender",
          "type": "address"
        },
        {
          "indexed": false,
          "internalType": "uint256",
          "name": "value",
          "type": "uint256"
        }
      ],
      "name": "Approval",
      "type": "event"
    },
    {
      "anonymous": false,
      "inputs": [
        {
          "indexed": false,
          "internalType": "string",
          "name": "charityName",
          "type": "string"
        },
        {
          "indexed": false,
          "internalType": "bool",
          "name": "completedDeletion",
          "type": "bool"
        }
      ],
      "name": "LogDeleteCharity",
      "type": "event"
    },
    {
      "anonymous": false,
      "inputs": [
        {
          "indexed": false,
          "internalType": "string",
          "name": "charityName",
          "type": "string"
        },
        {
          "indexed": false,
          "internalType": "address",
          "name": "ID",
          "type": "address"
        },
        {
          "indexed": false,
          "internalType": "string",
          "name": "request",
          "type": "string"
        },
        {
          "indexed": false,
          "internalType": "string",
          "name": "primaryContact",
          "type": "string"
        },
        {
          "indexed": false,
          "internalType": "bool",
          "name": "urgent",
          "type": "bool"
        },
        {
          "indexed": false,
          "internalType": "uint256",
          "name": "tokenReward",
          "type": "uint256"
        }
      ],
      "name": "LogNewCharity",
      "type": "event"
    },
    {
      "anonymous": false,
      "inputs": [
        {
          "indexed": false,
          "internalType": "string",
          "name": "supplierName",
          "type": "string"
        },
        {
          "indexed": false,
          "internalType": "address",
          "name": "ID",
          "type": "address"
        },
        {
          "indexed": false,
          "internalType": "string",
          "name": "primaryContact",
          "type": "string"
        }
      ],
      "name": "LogNewSupplier",
      "type": "event"
    },
    {
      "anonymous": false,
      "inputs": [
        {
          "indexed": false,
          "internalType": "string",
          "name": "charityName",
          "type": "string"
        },
        {
          "indexed": false,
          "internalType": "string",
          "name": "supplier",
          "type": "string"
        },
        {
          "indexed": false,
          "internalType": "bool",
          "name": "completedSelection",
          "type": "bool"
        }
      ],
      "name": "LogSelectCharity",
      "type": "event"
    },
    {
      "anonymous": false,
      "inputs": [
        {
          "indexed": true,
          "internalType": "address",
          "name": "from",
          "type": "address"
        },
        {
          "indexed": true,
          "internalType": "address",
          "name": "to",
          "type": "address"
        },
        {
          "indexed": false,
          "internalType": "uint256",
          "name": "value",
          "type": "uint256"
        }
      ],
      "name": "Transfer",
      "type": "event"
    },
    {
      "inputs": [
        {
          "internalType": "address",
          "name": "owner",
          "type": "address"
        },
        {
          "internalType": "address",
          "name": "spender",
          "type": "address"
        }
      ],
      "name": "allowance",
      "outputs": [
        {
          "internalType": "uint256",
          "name": "",
          "type": "uint256"
        }
      ],
      "stateMutability": "view",
      "type": "function",
      "constant": true
    },
    {
      "inputs": [
        {
          "internalType": "address",
          "name": "spender",
          "type": "address"
        },
        {
          "internalType": "uint256",
          "name": "amount",
          "type": "uint256"
        }
      ],
      "name": "approve",
      "outputs": [
        {
          "internalType": "bool",
          "name": "",
          "type": "bool"
        }
      ],
      "stateMutability": "nonpayable",
      "type": "function"
    },
    {
      "inputs": [
        {
          "internalType": "address",
          "name": "account",
          "type": "address"
        }
      ],
      "name": "balanceOf",
      "outputs": [
        {
          "internalType": "uint256",
          "name": "",
          "type": "uint256"
        }
      ],
      "stateMutability": "view",
      "type": "function",
      "constant": true
    },
    {
      "inputs": [],
      "name": "decimals",
      "outputs": [
        {
          "internalType": "uint8",
          "name": "",
          "type": "uint8"
        }
      ],
      "stateMutability": "view",
      "type": "function",
      "constant": true
    },
    {
      "inputs": [
        {
          "internalType": "address",
          "name": "spender",
          "type": "address"
        },
        {
          "internalType": "uint256",
          "name": "subtractedValue",
          "type": "uint256"
        }
      ],
      "name": "decreaseAllowance",
      "outputs": [
        {
          "internalType": "bool",
          "name": "",
          "type": "bool"
        }
      ],
      "stateMutability": "nonpayable",
      "type": "function"
    },
    {
      "inputs": [
        {
          "internalType": "address",
          "name": "spender",
          "type": "address"
        },
        {
          "internalType": "uint256",
          "name": "addedValue",
          "type": "uint256"
        }
      ],
      "name": "increaseAllowance",
      "outputs": [
        {
          "internalType": "bool",
          "name": "",
          "type": "bool"
        }
      ],
      "stateMutability": "nonpayable",
      "type": "function"
    },
    {
      "inputs": [],
      "name": "name",
      "outputs": [
        {
          "internalType": "string",
          "name": "",
          "type": "string"
        }
      ],
      "stateMutability": "view",
      "type": "function",
      "constant": true
    },
    {
      "inputs": [],
      "name": "symbol",
      "outputs": [
        {
          "internalType": "string",
          "name": "",
          "type": "string"
        }
      ],
      "stateMutability": "view",
      "type": "function",
      "constant": true
    },
    {
      "inputs": [],
      "name": "totalSupply",
      "outputs": [
        {
          "internalType": "uint256",
          "name": "",
          "type": "uint256"
        }
      ],
      "stateMutability": "view",
      "type": "function",
      "constant": true
    },
    {
      "inputs": [
        {
          "internalType": "address",
          "name": "recipient",
          "type": "address"
        },
        {
          "internalType": "uint256",
          "name": "amount",
          "type": "uint256"
        }
      ],
      "name": "transfer",
      "outputs": [
        {
          "internalType": "bool",
          "name": "",
          "type": "bool"
        }
      ],
      "stateMutability": "nonpayable",
      "type": "function"
    },
    {
      "inputs": [
        {
          "internalType": "address",
          "name": "sender",
          "type": "address"
        },
        {
          "internalType": "address",
          "name": "recipient",
          "type": "address"
        },
        {
          "internalType": "uint256",
          "name": "amount",
          "type": "uint256"
        }
      ],
      "name": "transferFrom",
      "outputs": [
        {
          "internalType": "bool",
          "name": "",
          "type": "bool"
        }
      ],
      "stateMutability": "nonpayable",
      "type": "function"
    },
    {
      "inputs": [
        {
          "internalType": "string",
          "name": "charity",
          "type": "string"
        },
        {
          "internalType": "address",
          "name": "ID",
          "type": "address"
        },
        {
          "internalType": "string",
          "name": "request",
          "type": "string"
        },
        {
          "internalType": "uint256",
          "name": "members",
          "type": "uint256"
        },
        {
          "internalType": "string",
          "name": "primaryContact",
          "type": "string"
        },
        {
          "internalType": "bool",
          "name": "urgent",
          "type": "bool"
        },
        {
          "internalType": "enum RequestChain.Category",
          "name": "category",
          "type": "uint8"
        }
      ],
      "name": "addRequest",
      "outputs": [],
      "stateMutability": "nonpayable",
      "type": "function"
    },
    {
      "inputs": [
        {
          "internalType": "string",
          "name": "charity",
          "type": "string"
        }
      ],
      "name": "getCharity",
      "outputs": [
        {
          "internalType": "address",
          "name": "ID",
          "type": "address"
        },
        {
          "internalType": "uint256",
          "name": "members",
          "type": "uint256"
        },
        {
          "internalType": "string",
          "name": "primaryContact",
          "type": "string"
        },
        {
          "internalType": "string",
          "name": "request",
          "type": "string"
        },
        {
          "internalType": "enum RequestChain.Category",
          "name": "category",
          "type": "uint8"
        },
        {
          "internalType": "uint256",
          "name": "tokenReward",
          "type": "uint256"
        },
        {
          "internalType": "bool",
          "name": "isSelected",
          "type": "bool"
        },
        {
          "internalType": "uint256",
          "name": "timestamp",
          "type": "uint256"
        },
        {
          "internalType": "uint256",
          "name": "deadline",
          "type": "uint256"
        }
      ],
      "stateMutability": "view",
      "type": "function",
      "constant": true
    },
    {
      "inputs": [],
      "name": "requestCount",
      "outputs": [
        {
          "internalType": "uint256",
          "name": "",
          "type": "uint256"
        }
      ],
      "stateMutability": "view",
      "type": "function",
      "constant": true
    },
    {
      "inputs": [
        {
          "internalType": "string",
          "name": "supplier",
          "type": "string"
        },
        {
          "internalType": "address",
          "name": "ID",
          "type": "address"
        },
        {
          "internalType": "uint256",
          "name": "members",
          "type": "uint256"
        },
        {
          "internalType": "string",
          "name": "primaryContact",
          "type": "string"
        },
        {
          "internalType": "enum RequestChain.Category",
          "name": "category",
          "type": "uint8"
        }
      ],
      "name": "addSupplier",
      "outputs": [],
      "stateMutability": "nonpayable",
      "type": "function"
    },
    {
      "inputs": [
        {
          "internalType": "string",
          "name": "supplier",
          "type": "string"
        },
        {
          "internalType": "uint256",
          "name": "i",
          "type": "uint256"
        }
      ],
      "name": "pendingRequests",
      "outputs": [
        {
          "internalType": "string",
          "name": "charity",
          "type": "string"
        },
        {
          "internalType": "bool",
          "name": "urgency",
          "type": "bool"
        },
        {
          "internalType": "uint256",
          "name": "reward",
          "type": "uint256"
        }
      ],
      "stateMutability": "view",
      "type": "function",
      "constant": true
    },
    {
      "inputs": [
        {
          "internalType": "string",
          "name": "charity",
          "type": "string"
        },
        {
          "internalType": "string",
          "name": "supplier",
          "type": "string"
        },
        {
          "internalType": "address",
          "name": "suppID",
          "type": "address"
        }
      ],
      "name": "selectCharity",
      "outputs": [
        {
          "internalType": "bool",
          "name": "isSelected",
          "type": "bool"
        }
      ],
      "stateMutability": "nonpayable",
      "type": "function"
    },
    {
      "inputs": [
        {
          "internalType": "string",
          "name": "charity",
          "type": "string"
        },
        {
          "internalType": "string",
          "name": "supplier",
          "type": "string"
        },
        {
          "internalType": "address",
          "name": "suppID",
          "type": "address"
        }
      ],
      "name": "delivery",
      "outputs": [],
      "stateMutability": "nonpayable",
      "type": "function"
    },
    {
      "inputs": [
        {
          "internalType": "string",
          "name": "charity",
          "type": "string"
        },
        {
          "internalType": "uint256",
          "name": "i",
          "type": "uint256"
        }
      ],
      "name": "popRequest",
      "outputs": [],
      "stateMutability": "nonpayable",
      "type": "function"
    },
    {
      "inputs": [
        {
          "internalType": "string",
          "name": "x",
          "type": "string"
        }
      ],
      "name": "searchInfo",
      "outputs": [],
      "stateMutability": "view",
      "type": "function",
      "constant": true
    },
    {
      "inputs": [
        {
          "internalType": "string",
          "name": "x",
          "type": "string"
        }
      ],
      "name": "getSupplier",
      "outputs": [
        {
          "internalType": "address",
          "name": "supplierID",
          "type": "address"
        },
        {
          "internalType": "uint256",
          "name": "members",
          "type": "uint256"
        },
        {
          "internalType": "enum RequestChain.Category",
          "name": "category",
          "type": "uint8"
        },
        {
          "internalType": "string",
          "name": "primaryContact",
          "type": "string"
        },
        {
          "internalType": "uint256",
          "name": "timestamp",
          "type": "uint256"
        },
        {
          "internalType": "uint256",
          "name": "completedRequests",
          "type": "uint256"
        },
        {
          "internalType": "uint256",
          "name": "incompletedRequests",
          "type": "uint256"
        }
      ],
      "stateMutability": "view",
      "type": "function",
      "constant": true
    }
  ],
  "bytecode": "0x60806040523480156200001157600080fd5b506040518060400160405280600d81526020017f4368617269747920546f6b656e000000000000000000000000000000000000008152506040518060400160405280600481526020017f43544b4e00000000000000000000000000000000000000000000000000000000815250816003908051906020019062000096929190620003be565b508060049080519060200190620000af929190620003be565b506012600560006101000a81548160ff021916908360ff160217905550505033600760006101000a81548173ffffffffffffffffffffffffffffffffffffffff021916908373ffffffffffffffffffffffffffffffffffffffff1602179055506000620f424090506200014b600760009054906101000a900473ffffffffffffffffffffffffffffffffffffffff16826200015260201b60201c565b506200046d565b600073ffffffffffffffffffffffffffffffffffffffff168273ffffffffffffffffffffffffffffffffffffffff161415620001f6576040517f08c379a000000000000000000000000000000000000000000000000000000000815260040180806020018281038252601f8152602001807f45524332303a206d696e7420746f20746865207a65726f20616464726573730081525060200191505060405180910390fd5b6200020a600083836200033060201b60201c565b62000226816002546200033560201b620045121790919060201c565b60028190555062000284816000808573ffffffffffffffffffffffffffffffffffffffff1673ffffffffffffffffffffffffffffffffffffffff168152602001908152602001600020546200033560201b620045121790919060201c565b6000808473ffffffffffffffffffffffffffffffffffffffff1673ffffffffffffffffffffffffffffffffffffffff168152602001908152602001600020819055508173ffffffffffffffffffffffffffffffffffffffff16600073ffffffffffffffffffffffffffffffffffffffff167fddf252ad1be2c89b69c2b068fc378daa952ba7f163c4a11628f55a4df523b3ef836040518082815260200191505060405180910390a35050565b505050565b600080828401905083811015620003b4576040517f08c379a000000000000000000000000000000000000000000000000000000000815260040180806020018281038252601b8152602001807f536166654d6174683a206164646974696f6e206f766572666c6f77000000000081525060200191505060405180910390fd5b8091505092915050565b828054600181600116156101000203166002900490600052602060002090601f016020900481019282601f106200040157805160ff191683800117855562000432565b8280016001018555821562000432579182015b828111156200043157825182559160200191906001019062000414565b5b50905062000441919062000445565b5090565b6200046a91905b80821115620004665760008160009055506001016200044c565b5090565b90565b61502d806200047d6000396000f3fe608060405234801561001057600080fd5b50600436106101375760003560e01c80638ad95d0e116100b8578063a457c2d71161007c578063a457c2d714610db3578063a9059cbb14610e19578063c042825914610e7f578063dd62ed3e14611009578063f449a7b914611081578063f9919bde146111f357610137565b80638ad95d0e1461077e57806390b5bf041461098d5780639548369614610a4857806395d89b4114610b9857806398ad064214610c1b57610137565b8063313ce567116100ff578063313ce567146104f557806339509351146105195780635badbe4c1461057f5780636ddb233d1461059d57806370a082311461072657610137565b806306fdde031461013c5780630781dd6c146101bf578063095ea7b3146103eb57806318160ddd1461045157806323b872dd1461046f575b600080fd5b6101446112b8565b6040518080602001828103825283818151815260200191508051906020019080838360005b83811015610184578082015181840152602081019050610169565b50505050905090810190601f1680156101b15780820380516001836020036101000a031916815260200191505b509250505060405180910390f35b6103e9600480360360e08110156101d557600080fd5b81019080803590602001906401000000008111156101f257600080fd5b82018360208201111561020457600080fd5b8035906020019184600183028401116401000000008311171561022657600080fd5b91908080601f016020809104026020016040519081016040528093929190818152602001838380828437600081840152601f19601f820116905080830192505050505050509192919290803573ffffffffffffffffffffffffffffffffffffffff169060200190929190803590602001906401000000008111156102a957600080fd5b8201836020820111156102bb57600080fd5b803590602001918460018302840111640100000000831117156102dd57600080fd5b91908080601f016020809104026020016040519081016040528093929190818152602001838380828437600081840152601f19601f820116905080830192505050505050509192919290803590602001909291908035906020019064010000000081111561034a57600080fd5b82018360208201111561035c57600080fd5b8035906020019184600183028401116401000000008311171561037e57600080fd5b91908080601f016020809104026020016040519081016040528093929190818152602001838380828437600081840152601f19601f820116905080830192505050505050509192919290803515159060200190929190803560ff16906020019092919050505061135a565b005b6104376004803603604081101561040157600080fd5b81019080803573ffffffffffffffffffffffffffffffffffffffff16906020019092919080359060200190929190505050611a59565b604051808215151515815260200191505060405180910390f35b610459611a77565b6040518082815260200191505060405180910390f35b6104db6004803603606081101561048557600080fd5b81019080803573ffffffffffffffffffffffffffffffffffffffff169060200190929190803573ffffffffffffffffffffffffffffffffffffffff16906020019092919080359060200190929190505050611a81565b604051808215151515815260200191505060405180910390f35b6104fd611b5a565b604051808260ff1660ff16815260200191505060405180910390f35b6105656004803603604081101561052f57600080fd5b81019080803573ffffffffffffffffffffffffffffffffffffffff16906020019092919080359060200190929190505050611b71565b604051808215151515815260200191505060405180910390f35b610587611c24565b6040518082815260200191505060405180910390f35b610724600480360360a08110156105b357600080fd5b81019080803590602001906401000000008111156105d057600080fd5b8201836020820111156105e257600080fd5b8035906020019184600183028401116401000000008311171561060457600080fd5b91908080601f016020809104026020016040519081016040528093929190818152602001838380828437600081840152601f19601f820116905080830192505050505050509192919290803573ffffffffffffffffffffffffffffffffffffffff169060200190929190803590602001909291908035906020019064010000000081111561069157600080fd5b8201836020820111156106a357600080fd5b803590602001918460018302840111640100000000831117156106c557600080fd5b91908080601f016020809104026020016040519081016040528093929190818152602001838380828437600081840152601f19601f820116905080830192505050505050509192919290803560ff169060200190929190505050611c31565b005b6107686004803603602081101561073c57600080fd5b81019080803573ffffffffffffffffffffffffffffffffffffffff16906020019092919050505061212b565b6040518082815260200191505060405180910390f35b6108376004803603602081101561079457600080fd5b81019080803590602001906401000000008111156107b157600080fd5b8201836020820111156107c357600080fd5b803590602001918460018302840111640100000000831117156107e557600080fd5b91908080601f016020809104026020016040519081016040528093929190818152602001838380828437600081840152601f19601f820116905080830192505050505050509192919290505050612173565b604051808a73ffffffffffffffffffffffffffffffffffffffff1673ffffffffffffffffffffffffffffffffffffffff168152602001898152602001806020018060200188600681111561088757fe5b60ff1681526020018781526020018615151515815260200185815260200184815260200183810383528a818151815260200191508051906020019080838360005b838110156108e35780820151818401526020810190506108c8565b50505050905090810190601f1680156109105780820380516001836020036101000a031916815260200191505b50838103825289818151815260200191508051906020019080838360005b8381101561094957808201518184015260208101905061092e565b50505050905090810190601f1680156109765780820380516001836020036101000a031916815260200191505b509b50505050505050505050505060405180910390f35b610a46600480360360208110156109a357600080fd5b81019080803590602001906401000000008111156109c057600080fd5b8201836020820111156109d257600080fd5b803590602001918460018302840111640100000000831117156109f457600080fd5b91908080601f016020809104026020016040519081016040528093929190818152602001838380828437600081840152601f19601f820116905080830192505050505050509192919290505050612578565b005b610b0b60048036036040811015610a5e57600080fd5b8101908080359060200190640100000000811115610a7b57600080fd5b820183602082011115610a8d57600080fd5b80359060200191846001830284011164010000000083111715610aaf57600080fd5b91908080601f016020809104026020016040519081016040528093929190818152602001838380828437600081840152601f19601f8201169050808301925050505050505091929192908035906020019092919050505061262e565b604051808060200184151515158152602001838152602001828103825285818151815260200191508051906020019080838360005b83811015610b5b578082015181840152602081019050610b40565b50505050905090810190601f168015610b885780820380516001836020036101000a031916815260200191505b5094505050505060405180910390f35b610ba061294a565b6040518080602001828103825283818151815260200191508051906020019080838360005b83811015610be0578082015181840152602081019050610bc5565b50505050905090810190601f168015610c0d5780820380516001836020036101000a031916815260200191505b509250505060405180910390f35b610cd460048036036020811015610c3157600080fd5b8101908080359060200190640100000000811115610c4e57600080fd5b820183602082011115610c6057600080fd5b80359060200191846001830284011164010000000083111715610c8257600080fd5b91908080601f016020809104026020016040519081016040528093929190818152602001838380828437600081840152601f19601f8201169050808301925050505050505091929192905050506129ec565b604051808873ffffffffffffffffffffffffffffffffffffffff1673ffffffffffffffffffffffffffffffffffffffff168152602001878152602001866006811115610d1c57fe5b60ff16815260200180602001858152602001848152602001838152602001828103825286818151815260200191508051906020019080838360005b83811015610d72578082015181840152602081019050610d57565b50505050905090810190601f168015610d9f5780820380516001836020036101000a031916815260200191505b509850505050505050505060405180910390f35b610dff60048036036040811015610dc957600080fd5b81019080803573ffffffffffffffffffffffffffffffffffffffff16906020019092919080359060200190929190505050612d58565b604051808215151515815260200191505060405180910390f35b610e6560048036036040811015610e2f57600080fd5b81019080803573ffffffffffffffffffffffffffffffffffffffff16906020019092919080359060200190929190505050612e25565b604051808215151515815260200191505060405180910390f35b610fef60048036036060811015610e9557600080fd5b8101908080359060200190640100000000811115610eb257600080fd5b820183602082011115610ec457600080fd5b80359060200191846001830284011164010000000083111715610ee657600080fd5b91908080601f016020809104026020016040519081016040528093929190818152602001838380828437600081840152601f19601f82011690508083019250505050505050919291929080359060200190640100000000811115610f4957600080fd5b820183602082011115610f5b57600080fd5b80359060200191846001830284011164010000000083111715610f7d57600080fd5b91908080601f016020809104026020016040519081016040528093929190818152602001838380828437600081840152601f19601f820116905080830192505050505050509192919290803573ffffffffffffffffffffffffffffffffffffffff169060200190929190505050612e43565b604051808215151515815260200191505060405180910390f35b61106b6004803603604081101561101f57600080fd5b81019080803573ffffffffffffffffffffffffffffffffffffffff169060200190929190803573ffffffffffffffffffffffffffffffffffffffff16906020019092919050505061365b565b6040518082815260200191505060405180910390f35b6111f16004803603606081101561109757600080fd5b81019080803590602001906401000000008111156110b457600080fd5b8201836020820111156110c657600080fd5b803590602001918460018302840111640100000000831117156110e857600080fd5b91908080601f016020809104026020016040519081016040528093929190818152602001838380828437600081840152601f19601f8201169050808301925050505050505091929192908035906020019064010000000081111561114b57600080fd5b82018360208201111561115d57600080fd5b8035906020019184600183028401116401000000008311171561117f57600080fd5b91908080601f016020809104026020016040519081016040528093929190818152602001838380828437600081840152601f19601f820116905080830192505050505050509192919290803573ffffffffffffffffffffffffffffffffffffffff1690602001909291905050506136e2565b005b6112b66004803603604081101561120957600080fd5b810190808035906020019064010000000081111561122657600080fd5b82018360208201111561123857600080fd5b8035906020019184600183028401116401000000008311171561125a57600080fd5b91908080601f016020809104026020016040519081016040528093929190818152602001838380828437600081840152601f19601f82011690508083019250505050505050919291929080359060200190929190505050613af2565b005b606060038054600181600116156101000203166002900480601f0160208091040260200160405190810160405280929190818152602001828054600181600116156101000203166002900480156113505780601f1061132557610100808354040283529160200191611350565b820191906000526020600020905b81548152906001019060200180831161133357829003601f168201915b5050505050905090565b61136387613cdd565b156113b9576040517f08c379a0000000000000000000000000000000000000000000000000000000008152600401808060200182810382526022815260200180614f1e6022913960400191505060405180910390fd5b6113c38688613e0b565b15611436576040517f08c379a000000000000000000000000000000000000000000000000000000000815260040180806020018281038252601c8152602001807f57696c6c206e6f7420616c6c6f77206475706c6963617465204944730000000081525060200191505060405180910390fd5b61143e614b2c565b600a886040518082805190602001908083835b602083106114745780518252602082019150602081019050602083039250611451565b6001836020036101000a038019825116818451168082178552505050505050905001915050908152602001604051809103902060405180610160016040529081600082018054600181600116156101000203166002900480601f01602080910402602001604051908101604052809291908181526020018280546001816001161561010002031660029004801561154c5780601f106115215761010080835404028352916020019161154c565b820191906000526020600020905b81548152906001019060200180831161152f57829003601f168201915b505050505081526020016001820160009054906101000a900473ffffffffffffffffffffffffffffffffffffffff1673ffffffffffffffffffffffffffffffffffffffff1673ffffffffffffffffffffffffffffffffffffffff168152602001600282018054600181600116156101000203166002900480601f0160208091040260200160405190810160405280929190818152602001828054600181600116156101000203166002900480156116445780601f1061161957610100808354040283529160200191611644565b820191906000526020600020905b81548152906001019060200180831161162757829003601f168201915b5050505050815260200160038201548152602001600482018054600181600116156101000203166002900480601f0160208091040260200160405190810160405280929190818152602001828054600181600116156101000203166002900480156116f05780601f106116c5576101008083540402835291602001916116f0565b820191906000526020600020905b8154815290600101906020018083116116d357829003601f168201915b505050505081526020016005820160009054906101000a900460ff16151515158152602001600682015481526020016007820160009054906101000a900460ff161515151581526020016007820160019054906101000a900460ff16600681111561175757fe5b600681111561176257fe5b815260200160088201548152602001600982015481525050905087816000018190525086816020019073ffffffffffffffffffffffffffffffffffffffff16908173ffffffffffffffffffffffffffffffffffffffff168152505084816060018181525050858160400181905250838160800181905250828160a00190151590811515815250506001151583151514156118065760048160c0018181525050611812565b60028160c00181815250505b81816101000190600681111561182457fe5b9081600681111561183157fe5b8152505060008160e0019015159081151581525050600688908060018154018082558091505060019003906000526020600020016000909190919091509080519060200190611881929190614bab565b5042816101400181815250507f420d512cd591b3f748d9dc5db9798cc497f2356b35cbec3f9233be8b88b5adf088888887878660c0015160405180806020018773ffffffffffffffffffffffffffffffffffffffff1673ffffffffffffffffffffffffffffffffffffffff16815260200180602001806020018615151515815260200185815260200184810384528a818151815260200191508051906020019080838360005b83811015611942578082015181840152602081019050611927565b50505050905090810190601f16801561196f5780820380516001836020036101000a031916815260200191505b50848103835288818151815260200191508051906020019080838360005b838110156119a857808201518184015260208101905061198d565b50505050905090810190601f1680156119d55780820380516001836020036101000a031916815260200191505b50848103825287818151815260200191508051906020019080838360005b83811015611a0e5780820151818401526020810190506119f3565b50505050905090810190601f168015611a3b5780820380516001836020036101000a031916815260200191505b50995050505050505050505060405180910390a15050505050505050565b6000611a6d611a66613f92565b8484613f9a565b6001905092915050565b6000600254905090565b6000611a8e848484614191565b611b4f84611a9a613f92565b611b4a85604051806060016040528060288152602001614f4060289139600160008b73ffffffffffffffffffffffffffffffffffffffff1673ffffffffffffffffffffffffffffffffffffffff1681526020019081526020016000206000611b00613f92565b73ffffffffffffffffffffffffffffffffffffffff1673ffffffffffffffffffffffffffffffffffffffff168152602001908152602001600020546144529092919063ffffffff16565b613f9a565b600190509392505050565b6000600560009054906101000a900460ff16905090565b6000611c1a611b7e613f92565b84611c158560016000611b8f613f92565b73ffffffffffffffffffffffffffffffffffffffff1673ffffffffffffffffffffffffffffffffffffffff16815260200190815260200160002060008973ffffffffffffffffffffffffffffffffffffffff1673ffffffffffffffffffffffffffffffffffffffff1681526020019081526020016000205461451290919063ffffffff16565b613f9a565b6001905092915050565b6000600680549050905090565b611c3a8561459a565b15611c90576040517f08c379a0000000000000000000000000000000000000000000000000000000008152600401808060200182810382526022815260200180614f686022913960400191505060405180910390fd5b611c9a8486613e0b565b15611d0d576040517f08c379a000000000000000000000000000000000000000000000000000000000815260040180806020018281038252601c8152602001807f57696c6c206e6f7420616c6c6f77206475706c6963617465204944730000000081525060200191505060405180910390fd5b611d15614c2b565b600b866040518082805190602001908083835b60208310611d4b5780518252602082019150602081019050602083039250611d28565b6001836020036101000a03801982511681845116808217855250505050505090500191505090815260200160405180910390206040518060c0016040529081600082018054600181600116156101000203166002900480601f016020809104026020016040519081016040528092919081815260200182805460018160011615610100020316600290048015611e225780601f10611df757610100808354040283529160200191611e22565b820191906000526020600020905b815481529060010190602001808311611e0557829003601f168201915b505050505081526020016001820160009054906101000a900473ffffffffffffffffffffffffffffffffffffffff1673ffffffffffffffffffffffffffffffffffffffff1673ffffffffffffffffffffffffffffffffffffffff16815260200160028201548152602001600382018054600181600116156101000203166002900480601f016020809104026020016040519081016040528092919081815260200182805460018160011615610100020316600290048015611f245780601f10611ef957610100808354040283529160200191611f24565b820191906000526020600020905b815481529060010190602001808311611f0757829003601f168201915b505050505081526020016004820160009054906101000a900460ff166006811115611f4b57fe5b6006811115611f5657fe5b81526020016005820154815250509050428160a001818152505085816000018190525084816020019073ffffffffffffffffffffffffffffffffffffffff16908173ffffffffffffffffffffffffffffffffffffffff1681525050838160400181815250508281606001819052508181608001906006811115611fd557fe5b90816006811115611fe257fe5b815250507f7e3eaa7effdcfe49a24fe2f552f654439198959781a66b3ca43366b0a8322e1d86868560405180806020018473ffffffffffffffffffffffffffffffffffffffff1673ffffffffffffffffffffffffffffffffffffffff16815260200180602001838103835286818151815260200191508051906020019080838360005b83811015612080578082015181840152602081019050612065565b50505050905090810190601f1680156120ad5780820380516001836020036101000a031916815260200191505b50838103825284818151815260200191508051906020019080838360005b838110156120e65780820151818401526020810190506120cb565b50505050905090810190601f1680156121135780820380516001836020036101000a031916815260200191505b509550505050505060405180910390a1505050505050565b60008060008373ffffffffffffffffffffffffffffffffffffffff1673ffffffffffffffffffffffffffffffffffffffff168152602001908152602001600020549050919050565b600080606080600080600080600061218a8a613cdd565b6121df576040517f08c379a0000000000000000000000000000000000000000000000000000000008152600401808060200182810382526024815260200180614ec46024913960400191505060405180910390fd5b6121e7614b2c565b600a8b6040518082805190602001908083835b6020831061221d57805182526020820191506020810190506020830392506121fa565b6001836020036101000a038019825116818451168082178552505050505050905001915050908152602001604051809103902060405180610160016040529081600082018054600181600116156101000203166002900480601f0160208091040260200160405190810160405280929190818152602001828054600181600116156101000203166002900480156122f55780601f106122ca576101008083540402835291602001916122f5565b820191906000526020600020905b8154815290600101906020018083116122d857829003601f168201915b505050505081526020016001820160009054906101000a900473ffffffffffffffffffffffffffffffffffffffff1673ffffffffffffffffffffffffffffffffffffffff1673ffffffffffffffffffffffffffffffffffffffff168152602001600282018054600181600116156101000203166002900480601f0160208091040260200160405190810160405280929190818152602001828054600181600116156101000203166002900480156123ed5780601f106123c2576101008083540402835291602001916123ed565b820191906000526020600020905b8154815290600101906020018083116123d057829003601f168201915b5050505050815260200160038201548152602001600482018054600181600116156101000203166002900480601f0160208091040260200160405190810160405280929190818152602001828054600181600116156101000203166002900480156124995780601f1061246e57610100808354040283529160200191612499565b820191906000526020600020905b81548152906001019060200180831161247c57829003601f168201915b505050505081526020016005820160009054906101000a900460ff16151515158152602001600682015481526020016007820160009054906101000a900460ff161515151581526020016007820160019054906101000a900460ff16600681111561250057fe5b600681111561250b57fe5b815260200160088201548152602001600982015481525050905080602001518160600151826080015183604001518461010001518560c001518661012001514210876101400151886101200151995099509950995099509950995099509950509193959799909294969850565b61258181613cdd565b8061259157506125908161459a565b5b6125e6576040517f08c379a000000000000000000000000000000000000000000000000000000000815260040180806020018281038252602a815260200180614e43602a913960400191505060405180910390fd5b6125ef81613cdd565b1561260b576125fd81612173565b50505050505050505061262b565b6126148161459a565b1561262a57612622816129ec565b505050505050505b5b50565b6060600080600a6006858154811061264257fe5b9060005260206000200160405180828054600181600116156101000203166002900480156126a75780601f106126855761010080835404028352918201916126a7565b820191906000526020600020905b815481529060010190602001808311612693575b5050915050908152602001604051809103902060070160019054906101000a900460ff1660068111156126d657fe5b600b866040518082805190602001908083835b6020831061270c57805182526020820191506020810190506020830392506126e9565b6001836020036101000a038019825116818451168082178552505050505050905001915050908152602001604051809103902060040160009054906101000a900460ff16600681111561275b57fe5b1415612942576006848154811061276e57fe5b90600052602060002001600a6006868154811061278757fe5b9060005260206000200160405180828054600181600116156101000203166002900480156127ec5780601f106127ca5761010080835404028352918201916127ec565b820191906000526020600020905b8154815290600101906020018083116127d8575b5050915050908152602001604051809103902060050160009054906101000a900460ff16600a6006878154811061281f57fe5b9060005260206000200160405180828054600181600116156101000203166002900480156128845780601f10612862576101008083540402835291820191612884565b820191906000526020600020905b815481529060010190602001808311612870575b5050915050908152602001604051809103902060060154828054600181600116156101000203166002900480601f0160208091040260200160405190810160405280929190818152602001828054600181600116156101000203166002900480156129305780601f1061290557610100808354040283529160200191612930565b820191906000526020600020905b81548152906001019060200180831161291357829003601f168201915b50505050509250925092509250612943565b5b9250925092565b606060048054600181600116156101000203166002900480601f0160208091040260200160405190810160405280929190818152602001828054600181600116156101000203166002900480156129e25780601f106129b7576101008083540402835291602001916129e2565b820191906000526020600020905b8154815290600101906020018083116129c557829003601f168201915b5050505050905090565b600080600060606000806000612a00614c2b565b600b896040518082805190602001908083835b60208310612a365780518252602082019150602081019050602083039250612a13565b6001836020036101000a03801982511681845116808217855250505050505090500191505090815260200160405180910390206040518060c0016040529081600082018054600181600116156101000203166002900480601f016020809104026020016040519081016040528092919081815260200182805460018160011615610100020316600290048015612b0d5780601f10612ae257610100808354040283529160200191612b0d565b820191906000526020600020905b815481529060010190602001808311612af057829003601f168201915b505050505081526020016001820160009054906101000a900473ffffffffffffffffffffffffffffffffffffffff1673ffffffffffffffffffffffffffffffffffffffff1673ffffffffffffffffffffffffffffffffffffffff16815260200160028201548152602001600382018054600181600116156101000203166002900480601f016020809104026020016040519081016040528092919081815260200182805460018160011615610100020316600290048015612c0f5780601f10612be457610100808354040283529160200191612c0f565b820191906000526020600020905b815481529060010190602001808311612bf257829003601f168201915b505050505081526020016004820160009054906101000a900460ff166006811115612c3657fe5b6006811115612c4157fe5b8152602001600582015481525050905080602001518160400151826080015183606001518460a00151600c8e6040518082805190602001908083835b60208310612ca05780518252602082019150602081019050602083039250612c7d565b6001836020036101000a038019825116818451168082178552505050505050905001915050908152602001604051809103902054600d8f6040518082805190602001908083835b60208310612d0a5780518252602082019150602081019050602083039250612ce7565b6001836020036101000a038019825116818451168082178552505050505050905001915050908152602001604051809103902054975097509750975097509750975050919395979092949650565b6000612e1b612d65613f92565b84612e1685604051806060016040528060258152602001614fd36025913960016000612d8f613f92565b73ffffffffffffffffffffffffffffffffffffffff1673ffffffffffffffffffffffffffffffffffffffff16815260200190815260200160002060008a73ffffffffffffffffffffffffffffffffffffffff1673ffffffffffffffffffffffffffffffffffffffff168152602001908152602001600020546144529092919063ffffffff16565b613f9a565b6001905092915050565b6000612e39612e32613f92565b8484614191565b6001905092915050565b6000600a846040518082805190602001908083835b60208310612e7b5780518252602082019150602081019050602083039250612e58565b6001836020036101000a038019825116818451168082178552505050505050905001915050908152602001604051809103902060080154421115612f3f576000600a856040518082805190602001908083835b60208310612ef15780518252602082019150602081019050602083039250612ece565b6001836020036101000a038019825116818451168082178552505050505050905001915050908152602001604051809103902060070160006101000a81548160ff0219169083151502179055505b8173ffffffffffffffffffffffffffffffffffffffff16600b846040518082805190602001908083835b60208310612f8c5780518252602082019150602081019050602083039250612f69565b6001836020036101000a038019825116818451168082178552505050505050905001915050908152602001604051809103902060010160009054906101000a900473ffffffffffffffffffffffffffffffffffffffff1673ffffffffffffffffffffffffffffffffffffffff161461304f576040517f08c379a0000000000000000000000000000000000000000000000000000000008152600401808060200182810382526031815260200180614e936031913960400191505060405180910390fd5b600b836040518082805190602001908083835b602083106130855780518252602082019150602081019050602083039250613062565b6001836020036101000a038019825116818451168082178552505050505050905001915050908152602001604051809103902060040160009054906101000a900460ff1660068111156130d457fe5b600a856040518082805190602001908083835b6020831061310a57805182526020820191506020810190506020830392506130e7565b6001836020036101000a038019825116818451168082178552505050505050905001915050908152602001604051809103902060070160019054906101000a900460ff16600681111561315957fe5b146131af576040517f08c379a0000000000000000000000000000000000000000000000000000000008152600401808060200182810382526025815260200180614dfc6025913960400191505060405180910390fd5b60001515600a856040518082805190602001908083835b602083106131e957805182526020820191506020810190506020830392506131c6565b6001836020036101000a038019825116818451168082178552505050505050905001915050908152602001604051809103902060070160009054906101000a900460ff16151514613285576040517f08c379a0000000000000000000000000000000000000000000000000000000008152600401808060200182810382526021815260200180614d9a6021913960400191505060405180910390fd5b60784201600a856040518082805190602001908083835b602083106132bf578051825260208201915060208101905060208303925061329c565b6001836020036101000a038019825116818451168082178552505050505050905001915050908152602001604051809103902060080181905550600a846040518082805190602001908083835b6020831061332f578051825260208201915060208101905060208303925061330c565b6001836020036101000a0380198251168184511680821785525050505050509050019150509081526020016040518091039020600801546009856040518082805190602001908083835b6020831061339c5780518252602082019150602081019050602083039250613379565b6001836020036101000a0380198251168184511680821785525050505050509050019150509081526020016040518091039020846040518082805190602001908083835b6020831061340357805182526020820191506020810190506020830392506133e0565b6001836020036101000a038019825116818451168082178552505050505050905001915050908152602001604051809103902081905550826008856040518082805190602001908083835b60208310613471578051825260208201915060208101905060208303925061344e565b6001836020036101000a038019825116818451168082178552505050505050905001915050908152602001604051809103902090805190602001906134b7929190614bab565b507f80cb6ddff94379138f2950f686a962b33d3c134123c76298b558a221fb7892ba8484600160405180806020018060200184151515158152602001838103835286818151815260200191508051906020019080838360005b8381101561352b578082015181840152602081019050613510565b50505050905090810190601f1680156135585780820380516001836020036101000a031916815260200191505b50838103825285818151815260200191508051906020019080838360005b83811015613591578082015181840152602081019050613576565b50505050905090810190601f1680156135be5780820380516001836020036101000a031916815260200191505b509550505050505060405180910390a16001600a856040518082805190602001908083835b6020831061360657805182526020820191506020810190506020830392506135e3565b6001836020036101000a038019825116818451168082178552505050505050905001915050908152602001604051809103902060070160006101000a81548160ff021916908315150217905590509392505050565b6000600160008473ffffffffffffffffffffffffffffffffffffffff1673ffffffffffffffffffffffffffffffffffffffff16815260200190815260200160002060008373ffffffffffffffffffffffffffffffffffffffff1673ffffffffffffffffffffffffffffffffffffffff16815260200190815260200160002054905092915050565b6137ed6008846040518082805190602001908083835b6020831061371b57805182526020820191506020810190506020830392506136f8565b6001836020036101000a03801982511681845116808217855250505050505090500191505090815260200160405180910390208054600181600116156101000203166002900480601f0160208091040260200160405190810160405280929190818152602001828054600181600116156101000203166002900480156137e25780601f106137b7576101008083540402835291602001916137e2565b820191906000526020600020905b8154815290600101906020018083116137c557829003601f168201915b5050505050836146b1565b613842576040517f08c379a0000000000000000000000000000000000000000000000000000000008152600401808060200182810382526041815260200180614dbb6041913960600191505060405180910390fd5b426009846040518082805190602001908083835b602083106138795780518252602082019150602081019050602083039250613856565b6001836020036101000a0380198251168184511680821785525050505050509050019150509081526020016040518091039020836040518082805190602001908083835b602083106138e057805182526020820191506020810190506020830392506138bd565b6001836020036101000a0380198251168184511680821785525050505050509050019150509081526020016040518091039020541115613ae157600d826040518082805190602001908083835b60208310613950578051825260208201915060208101905060208303925061392d565b6001836020036101000a0380198251168184511680821785525050505050509050019150509081526020016040518091039020600081548092919060010191905055506008836040518082805190602001908083835b602083106139c957805182526020820191506020810190506020830392506139a6565b6001836020036101000a03801982511681845116808217855250505050505090500191505090815260200160405180910390206000613a089190614c82565b6009836040518082805190602001908083835b60208310613a3e5780518252602082019150602081019050602083039250613a1b565b6001836020036101000a0380198251168184511680821785525050505050509050019150509081526020016040518091039020826040518082805190602001908083835b60208310613aa55780518252602082019150602081019050602083039250613a82565b6001836020036101000a038019825116818451168082178552505050505050905001915050908152602001604051809103902060009055613aed565b613aec8383836146cc565b5b505050565b613bab8260068381548110613b0357fe5b906000526020600020018054600181600116156101000203166002900480601f016020809104026020016040519081016040528092919081815260200182805460018160011615610100020316600290048015613ba15780601f10613b7657610100808354040283529160200191613ba1565b820191906000526020600020905b815481529060010190602001808311613b8457829003601f168201915b50505050506146b1565b15613c3057600660016006805490500381548110613bc557fe5b9060005260206000200160068281548110613bdc57fe5b906000526020600020019080546001816001161561010002031660029004613c05929190614cca565b506006805480613c1157fe5b600190038181906000526020600020016000613c2d9190614c82565b90555b7f99e8530a350e2c0cf898a9351fc1993d12c6bf7e76c950ea10ad25d0077bf2f4826001604051808060200183151515158152602001828103825284818151815260200191508051906020019080838360005b83811015613c9e578082015181840152602081019050613c83565b50505050905090810190601f168015613ccb5780820380516001836020036101000a031916815260200191505b50935050505060405180910390a15050565b6000806006805490501415613cf55760009050613e06565b613e0382600a846040518082805190602001908083835b60208310613d2f5780518252602082019150602081019050602083039250613d0c565b6001836020036101000a03801982511681845116808217855250505050505090500191505090815260200160405180910390206000018054600181600116156101000203166002900480601f016020809104026020016040519081016040528092919081815260200182805460018160011615610100020316600290048015613df95780601f10613dce57610100808354040283529160200191613df9565b820191906000526020600020905b815481529060010190602001808311613ddc57829003601f168201915b50505050506146b1565b90505b919050565b6000600a826040518082805190602001908083835b60208310613e435780518252602082019150602081019050602083039250613e20565b6001836020036101000a038019825116818451168082178552505050505050905001915050908152602001604051809103902060010160009054906101000a900473ffffffffffffffffffffffffffffffffffffffff1673ffffffffffffffffffffffffffffffffffffffff168373ffffffffffffffffffffffffffffffffffffffff161480613f8a5750600b826040518082805190602001908083835b60208310613f045780518252602082019150602081019050602083039250613ee1565b6001836020036101000a038019825116818451168082178552505050505050905001915050908152602001604051809103902060010160009054906101000a900473ffffffffffffffffffffffffffffffffffffffff1673ffffffffffffffffffffffffffffffffffffffff168373ffffffffffffffffffffffffffffffffffffffff16145b905092915050565b600033905090565b600073ffffffffffffffffffffffffffffffffffffffff168373ffffffffffffffffffffffffffffffffffffffff161415614020576040517f08c379a0000000000000000000000000000000000000000000000000000000008152600401808060200182810382526024815260200180614faf6024913960400191505060405180910390fd5b600073ffffffffffffffffffffffffffffffffffffffff168273ffffffffffffffffffffffffffffffffffffffff1614156140a6576040517f08c379a0000000000000000000000000000000000000000000000000000000008152600401808060200182810382526022815260200180614e216022913960400191505060405180910390fd5b80600160008573ffffffffffffffffffffffffffffffffffffffff1673ffffffffffffffffffffffffffffffffffffffff16815260200190815260200160002060008473ffffffffffffffffffffffffffffffffffffffff1673ffffffffffffffffffffffffffffffffffffffff168152602001908152602001600020819055508173ffffffffffffffffffffffffffffffffffffffff168373ffffffffffffffffffffffffffffffffffffffff167f8c5be1e5ebec7d5bd14f71427d1e84f3dd0314c0f7b2291e5b200ac8c7c3b925836040518082815260200191505060405180910390a3505050565b600073ffffffffffffffffffffffffffffffffffffffff168373ffffffffffffffffffffffffffffffffffffffff161415614217576040517f08c379a0000000000000000000000000000000000000000000000000000000008152600401808060200182810382526025815260200180614f8a6025913960400191505060405180910390fd5b600073ffffffffffffffffffffffffffffffffffffffff168273ffffffffffffffffffffffffffffffffffffffff16141561429d576040517f08c379a0000000000000000000000000000000000000000000000000000000008152600401808060200182810382526023815260200180614d776023913960400191505060405180910390fd5b6142a8838383614b27565b61431381604051806060016040528060268152602001614e6d602691396000808773ffffffffffffffffffffffffffffffffffffffff1673ffffffffffffffffffffffffffffffffffffffff168152602001908152602001600020546144529092919063ffffffff16565b6000808573ffffffffffffffffffffffffffffffffffffffff1673ffffffffffffffffffffffffffffffffffffffff168152602001908152602001600020819055506143a6816000808573ffffffffffffffffffffffffffffffffffffffff1673ffffffffffffffffffffffffffffffffffffffff1681526020019081526020016000205461451290919063ffffffff16565b6000808473ffffffffffffffffffffffffffffffffffffffff1673ffffffffffffffffffffffffffffffffffffffff168152602001908152602001600020819055508173ffffffffffffffffffffffffffffffffffffffff168373ffffffffffffffffffffffffffffffffffffffff167fddf252ad1be2c89b69c2b068fc378daa952ba7f163c4a11628f55a4df523b3ef836040518082815260200191505060405180910390a3505050565b60008383111582906144ff576040517f08c379a00000000000000000000000000000000000000000000000000000000081526004018080602001828103825283818151815260200191508051906020019080838360005b838110156144c45780820151818401526020810190506144a9565b50505050905090810190601f1680156144f15780820380516001836020036101000a031916815260200191505b509250505060405180910390fd5b5060008385039050809150509392505050565b600080828401905083811015614590576040517f08c379a000000000000000000000000000000000000000000000000000000000815260040180806020018281038252601b8152602001807f536166654d6174683a206164646974696f6e206f766572666c6f77000000000081525060200191505060405180910390fd5b8091505092915050565b60006146aa82600b846040518082805190602001908083835b602083106145d657805182526020820191506020810190506020830392506145b3565b6001836020036101000a03801982511681845116808217855250505050505090500191505090815260200160405180910390206000018054600181600116156101000203166002900480601f0160208091040260200160405190810160405280929190818152602001828054600181600116156101000203166002900480156146a05780601f10614675576101008083540402835291602001916146a0565b820191906000526020600020905b81548152906001019060200180831161468357829003601f168201915b50505050506146b1565b9050919050565b60008180519060200120838051906020012014905092915050565b82600a816040518082805190602001908083835b6020831061470357805182526020820191506020810190506020830392506146e0565b6001836020036101000a038019825116818451168082178552505050505050905001915050908152602001604051809103902060080154421115614792576040517f08c379a0000000000000000000000000000000000000000000000000000000008152600401808060200182810382526036815260200180614ee86036913960400191505060405180910390fd5b600061479c611b5a565b60ff16600a0a600a866040518082805190602001908083835b602083106147d857805182526020820191506020810190506020830392506147b5565b6001836020036101000a03801982511681845116808217855250505050505090500191505090815260200160405180910390206006015402905061483f600760009054906101000a900473ffffffffffffffffffffffffffffffffffffffff168483614191565b600c846040518082805190602001908083835b602083106148755780518252602082019150602081019050602083039250614852565b6001836020036101000a0380198251168184511680821785525050505050509050019150509081526020016040518091039020600081548092919060010191905055506008856040518082805190602001908083835b602083106148ee57805182526020820191506020810190506020830392506148cb565b6001836020036101000a0380198251168184511680821785525050505050509050019150509081526020016040518091039020600061492d9190614c82565b6009856040518082805190602001908083835b602083106149635780518252602082019150602081019050602083039250614940565b6001836020036101000a0380198251168184511680821785525050505050509050019150509081526020016040518091039020846040518082805190602001908083835b602083106149ca57805182526020820191506020810190506020830392506149a7565b6001836020036101000a038019825116818451168082178552505050505050905001915050908152602001604051809103902060009055600a856040518082805190602001908083835b60208310614a375780518252602082019150602081019050602083039250614a14565b6001836020036101000a038019825116818451168082178552505050505050905001915050908152602001604051809103902060008082016000614a7b9190614c82565b6001820160006101000a81549073ffffffffffffffffffffffffffffffffffffffff0219169055600282016000614ab29190614c82565b6003820160009055600482016000614aca9190614c82565b6005820160006101000a81549060ff021916905560068201600090556007820160006101000a81549060ff02191690556007820160016101000a81549060ff02191690556008820160009055600982016000905550505050505050565b505050565b60405180610160016040528060608152602001600073ffffffffffffffffffffffffffffffffffffffff1681526020016060815260200160008152602001606081526020016000151581526020016000815260200160001515815260200160006006811115614b9757fe5b815260200160008152602001600081525090565b828054600181600116156101000203166002900490600052602060002090601f016020900481019282601f10614bec57805160ff1916838001178555614c1a565b82800160010185558215614c1a579182015b82811115614c19578251825591602001919060010190614bfe565b5b509050614c279190614d51565b5090565b6040518060c0016040528060608152602001600073ffffffffffffffffffffffffffffffffffffffff168152602001600081526020016060815260200160006006811115614c7557fe5b8152602001600081525090565b50805460018160011615610100020316600290046000825580601f10614ca85750614cc7565b601f016020900490600052602060002090810190614cc69190614d51565b5b50565b828054600181600116156101000203166002900490600052602060002090601f016020900481019282601f10614d035780548555614d40565b82800160010185558215614d4057600052602060002091601f016020900482015b82811115614d3f578254825591600101919060010190614d24565b5b509050614d4d9190614d51565b5090565b614d7391905b80821115614d6f576000816000905550600101614d57565b5090565b9056fe45524332303a207472616e7366657220746f20746865207a65726f2061646472657373436861726974792068617320616c7265616479206265656e2073656c656374656452657175657374206973206e6f742073656c656374656420627920436f6e74726163746f722070726f76696465643a204d61726b656420494e434f4d504c45544543617465676f7269657320646f206e6f74206d6174636820617070726f7072696174656c7945524332303a20617070726f766520746f20746865207a65726f20616464726573734e6f20696e666f726d6174696f6e206c697374656420666f72205365617263682070726f76696465642145524332303a207472616e7366657220616d6f756e7420657863656564732062616c616e6365436f6e74726163746f72207469746c6520646f6573206e6f74206d6174636820416464726573732070726f7669646564214368617269747920726571756573746564206973206e6f742077697468696e206c69737454696d6520746f20636f6d706c65746520726571756573742069732075702e20546f6b656e207265776172642072657665727465642157696c6c206e6f7420616c6c6f77206475706c69636174652043686172697469657345524332303a207472616e7366657220616d6f756e74206578636565647320616c6c6f77616e636557696c6c206e6f7420616c6c6f77206475706c696361746520537570706c6965727345524332303a207472616e736665722066726f6d20746865207a65726f206164647265737345524332303a20617070726f76652066726f6d20746865207a65726f206164647265737345524332303a2064656372656173656420616c6c6f77616e63652062656c6f77207a65726fa2646970667358221220c805e3c19ce0c43befba5efcaad31553efa04a221c186f42379737b0a52a061464736f6c63430006070033",
  "source": "pragma solidity 0.6.7;\n\n//import \"https://github.com/OpenZeppelin/openzeppelin-contracts/blob/master/contracts/token/ERC20/ERC20.sol\";\n\n//import \"github/OpenZeppelin/openzeppelin-contracts/contracts/token/ERC20/ERC20.sol\";\n\nimport \"@openzeppelin/contracts/token/ERC20/ERC20.sol\";\n\ncontract RequestChain is ERC20 {\n    enum Category {\n        Food,\n        Clothing,\n        Furniture,\n        Education,\n        Transportation,\n        Medical,\n        Funding\n    }\n\n    struct Charity {\n        string charityName;\n        address ID;\n        string request;\n        uint256 members;\n        string primaryContact;\n        bool urgent;\n        uint256 tokenReward;\n        bool isSelected;\n        Category category;\n        uint256 expiry;\n        uint256 entryTime;\n    }\n\n    struct Supplier {\n        string supplierName;\n        address ID;\n        uint256 members;\n        string primaryContact;\n        Category category;\n        uint256 entryTime;\n    }\n\n    string[] private charityArr;\n    address private owner;\n    mapping(string => string) private char2Supp;\n    mapping(string => mapping(string => uint256)) private timeLimit;\n    mapping(string => Charity) private Charities;\n    mapping(string => Supplier) private Suppliers;\n    mapping(string => uint256) private complete;\n    mapping(string => uint256) private incomplete;\n\n    event LogNewCharity(\n        string charityName,\n        address ID,\n        string request,\n        string primaryContact,\n        bool urgent,\n        uint256 tokenReward\n    );\n    event LogNewSupplier(\n        string supplierName,\n        address ID,\n        string primaryContact\n    );\n    event LogSelectCharity(\n        string charityName,\n        string supplier,\n        bool completedSelection\n    );\n    event LogDeleteCharity(string charityName, bool completedDeletion);\n\n    constructor() public ERC20(\"Charity Token\", \"CTKN\") {\n        // Initially assign all tokens to the contract's creator.\n        owner = msg.sender;\n        uint256 initialSupply = 1000000;\n        _mint(owner, initialSupply);\n    }\n\n    modifier timeCheck(string memory charity) {\n        require(\n            block.timestamp <= Charities[charity].expiry,\n            \"Time to complete request is up. Token reward reverted!\"\n        );\n        _;\n    }\n\n    function comp(string memory _a, string memory _b)\n        internal\n        pure\n        returns (bool)\n    {\n        return keccak256(bytes(_a)) == keccak256(bytes(_b));\n    }\n\n    function isCharity(string memory charity) internal view returns (bool) {\n        if (charityArr.length == 0) return false;\n        return comp(charity, Charities[charity].charityName);\n    }\n\n    function isSupplier(string memory supplier) internal view returns (bool) {\n        return comp(supplier, Suppliers[supplier].supplierName);\n    }\n\n    function isAddress(address ID, string memory name)\n        internal\n        view\n        returns (bool)\n    {\n        return ID == Charities[name].ID || ID == Suppliers[name].ID;\n    }\n\n    function addRequest(\n        string memory charity,\n        address ID,\n        string memory request,\n        uint256 members,\n        string memory primaryContact,\n        bool urgent,\n        Category category\n    ) public {\n        require(!isCharity(charity), \"Will not allow duplicate Charities\");\n        require(!isAddress(ID, charity), \"Will not allow duplicate IDs\");\n        Charity memory _charity = Charities[charity];\n        _charity.charityName = charity;\n        _charity.ID = ID;\n        _charity.members = members;\n        _charity.request = request;\n        _charity.primaryContact = primaryContact;\n        _charity.urgent = urgent;\n        if (urgent == true) {\n            _charity.tokenReward = 4;\n        } else {\n            _charity.tokenReward = 2;\n        }\n        _charity.category = category;\n        _charity.isSelected = false;\n        charityArr.push(charity);\n        _charity.entryTime = now;\n        emit LogNewCharity(\n            charity,\n            ID,\n            request,\n            primaryContact,\n            urgent,\n            _charity.tokenReward\n        );\n    }\n\n    function getCharity(string memory charity)\n        public\n        view\n        returns (\n            address ID,\n            uint256 members,\n            string memory primaryContact,\n            string memory request,\n            Category category,\n            uint256 tokenReward,\n            bool isSelected,\n            uint256 timestamp,\n            uint256 deadline\n        )\n    {\n        require(isCharity(charity), \"Charity requested is not within list\");\n        Charity memory _charity = Charities[charity];\n        return (\n            _charity.ID,\n            _charity.members,\n            _charity.primaryContact,\n            _charity.request,\n            _charity.category,\n            _charity.tokenReward,\n            now < _charity.expiry,\n            _charity.entryTime,\n            _charity.expiry\n        );\n    }\n\n    function requestCount() public view returns (uint256) {\n        return charityArr.length;\n    }\n\n    function addSupplier(\n        string memory supplier,\n        address ID,\n        uint256 members,\n        string memory primaryContact,\n        Category category\n    ) public {\n        require(!isSupplier(supplier), \"Will not allow duplicate Suppliers\");\n        require(!isAddress(ID, supplier), \"Will not allow duplicate IDs\");\n        Supplier memory _supplier = Suppliers[supplier];\n        _supplier.entryTime = now;\n        _supplier.supplierName = supplier;\n        _supplier.ID = ID;\n        _supplier.members = members;\n        _supplier.primaryContact = primaryContact;\n        _supplier.category = category;\n\n        emit LogNewSupplier(supplier, ID, primaryContact);\n    }\n\n    // needs for loop\n    function pendingRequests(string memory supplier, uint256 i)\n        public\n        view\n        returns (\n            string memory charity,\n            bool urgency,\n            uint256 reward\n        )\n    {\n        if (Suppliers[supplier].category == Charities[charityArr[i]].category) {\n            return (\n                charityArr[i],\n                Charities[charityArr[i]].urgent,\n                Charities[charityArr[i]].tokenReward\n            );\n        }\n    }\n\n    function selectCharity(\n        string memory charity,\n        string memory supplier,\n        address suppID\n    ) public returns (bool isSelected) {\n        if (now > Charities[charity].expiry) {\n            Charities[charity].isSelected = false;\n        }\n        require(\n            Suppliers[supplier].ID == suppID,\n            \"Contractor title does not match Address provided!\"\n        );\n        require(\n            Charities[charity].category == Suppliers[supplier].category,\n            \"Categories do not match appropriately\"\n        );\n        require(\n            Charities[charity].isSelected == false,\n            \"Charity has already been selected\"\n        );\n        Charities[charity].expiry = block.timestamp + 2 minutes;\n        timeLimit[charity][supplier] = Charities[charity].expiry;\n        char2Supp[charity] = supplier;\n        emit LogSelectCharity(charity, supplier, true);\n        return Charities[charity].isSelected = true;\n    }\n\n    function delivery(\n        string memory charity,\n        string memory supplier,\n        address suppID\n    ) public {\n        require(\n            comp(char2Supp[charity], supplier),\n            \"Request is not selected by Contractor provided: Marked INCOMPLETE\"\n        );\n        if (timeLimit[charity][supplier] > now) {\n            incomplete[supplier]++;\n            delete char2Supp[charity];\n            delete timeLimit[charity][supplier];\n        } else {\n            deliverRequest(charity, supplier, suppID);\n        }\n    }\n\n    function deliverRequest(\n        string memory charity,\n        string memory supplier,\n        address suppID\n    ) private timeCheck(charity) {\n        uint256 tokens = Charities[charity].tokenReward *\n            uint256(10)**decimals();\n        _transfer(owner, suppID, tokens);\n        complete[supplier]++;\n        delete char2Supp[charity];\n        delete timeLimit[charity][supplier];\n        delete Charities[charity];\n    }\n\n    //needs for loop\n    function popRequest(string memory charity, uint256 i) public {\n        if (comp(charity, charityArr[i])) {\n            charityArr[i] = charityArr[charityArr.length - 1];\n            charityArr.pop();\n        }\n        emit LogDeleteCharity(charity, true);\n    }\n\n    function searchInfo(string memory x) public view {\n        require(\n            isCharity(x) || isSupplier(x),\n            \"No information listed for Search provided!\"\n        );\n        if (isCharity(x)) {\n            getCharity(x);\n        } else if (isSupplier(x)) {\n            getSupplier(x);\n        }\n    }\n\n    function getSupplier(string memory x)\n        public\n        view\n        returns (\n            address supplierID,\n            uint256 members,\n            Category category,\n            string memory primaryContact,\n            uint256 timestamp,\n            uint256 completedRequests,\n            uint256 incompletedRequests\n        )\n    {\n        Supplier memory _supplier = Suppliers[x];\n        return (\n            _supplier.ID,\n            _supplier.members,\n            _supplier.category,\n            _supplier.primaryContact,\n            _supplier.entryTime,\n            complete[x],\n            incomplete[x]\n        );\n    }\n}\n",
  "sourcePath": "/Users/Beth/git/charity2/contracts/RequestChain.sol",
  "compiler": {
    "name": "solc",
    "version": "0.6.7+commit.b8d736ae.Emscripten.clang"
  },
  "schemaVersion": "3.2.3",
  "updatedAt": "2020-07-31T01:46:23.437Z",
  "networkType": "ethereum",
  "devdoc": {
    "methods": {
      "allowance(address,address)": {
        "details": "See {IERC20-allowance}."
      },
      "approve(address,uint256)": {
        "details": "See {IERC20-approve}.     * Requirements:     * - `spender` cannot be the zero address."
      },
      "balanceOf(address)": {
        "details": "See {IERC20-balanceOf}."
      },
      "decimals()": {
        "details": "Returns the number of decimals used to get its user representation. For example, if `decimals` equals `2`, a balance of `505` tokens should be displayed to a user as `5,05` (`505 / 10 ** 2`).     * Tokens usually opt for a value of 18, imitating the relationship between Ether and Wei. This is the value {ERC20} uses, unless {_setupDecimals} is called.     * NOTE: This information is only used for _display_ purposes: it in no way affects any of the arithmetic of the contract, including {IERC20-balanceOf} and {IERC20-transfer}."
      },
      "decreaseAllowance(address,uint256)": {
        "details": "Atomically decreases the allowance granted to `spender` by the caller.     * This is an alternative to {approve} that can be used as a mitigation for problems described in {IERC20-approve}.     * Emits an {Approval} event indicating the updated allowance.     * Requirements:     * - `spender` cannot be the zero address. - `spender` must have allowance for the caller of at least `subtractedValue`."
      },
      "increaseAllowance(address,uint256)": {
        "details": "Atomically increases the allowance granted to `spender` by the caller.     * This is an alternative to {approve} that can be used as a mitigation for problems described in {IERC20-approve}.     * Emits an {Approval} event indicating the updated allowance.     * Requirements:     * - `spender` cannot be the zero address."
      },
      "name()": {
        "details": "Returns the name of the token."
      },
      "symbol()": {
        "details": "Returns the symbol of the token, usually a shorter version of the name."
      },
      "totalSupply()": {
        "details": "See {IERC20-totalSupply}."
      },
      "transfer(address,uint256)": {
        "details": "See {IERC20-transfer}.     * Requirements:     * - `recipient` cannot be the zero address. - the caller must have a balance of at least `amount`."
      },
      "transferFrom(address,address,uint256)": {
        "details": "See {IERC20-transferFrom}.     * Emits an {Approval} event indicating the updated allowance. This is not required by the EIP. See the note at the beginning of {ERC20};     * Requirements: - `sender` and `recipient` cannot be the zero address. - `sender` must have a balance of at least `amount`. - the caller must have allowance for ``sender``'s tokens of at least `amount`."
      }
    }
  },
  "userdoc": {
    "methods": {}
  }
}