{
  "contractName": "RequestChain",
  "abi": [
    {
      "inputs": [],
      "stateMutability": "nonpayable",
      "type": "constructor"
    },
    {
      "anonymous": false,
      "inputs": [
        {
          "indexed": true,
          "internalType": "address",
          "name": "owner",
          "type": "address"
        },
        {
          "indexed": true,
          "internalType": "address",
          "name": "spender",
          "type": "address"
        },
        {
          "indexed": false,
          "internalType": "uint256",
          "name": "value",
          "type": "uint256"
        }
      ],
      "name": "Approval",
      "type": "event"
    },
    {
      "anonymous": false,
      "inputs": [
        {
          "indexed": false,
          "internalType": "string",
          "name": "charityName",
          "type": "string"
        },
        {
          "indexed": false,
          "internalType": "bool",
          "name": "completedDeletion",
          "type": "bool"
        }
      ],
      "name": "LogDeleteCharity",
      "type": "event"
    },
    {
      "anonymous": false,
      "inputs": [
        {
          "indexed": false,
          "internalType": "string",
          "name": "charityName",
          "type": "string"
        },
        {
          "indexed": false,
          "internalType": "address",
          "name": "ID",
          "type": "address"
        },
        {
          "indexed": false,
          "internalType": "string",
          "name": "request",
          "type": "string"
        },
        {
          "indexed": false,
          "internalType": "string",
          "name": "primaryContact",
          "type": "string"
        },
        {
          "indexed": false,
          "internalType": "bool",
          "name": "urgent",
          "type": "bool"
        },
        {
          "indexed": false,
          "internalType": "uint256",
          "name": "tokenReward",
          "type": "uint256"
        }
      ],
      "name": "LogNewCharity",
      "type": "event"
    },
    {
      "anonymous": false,
      "inputs": [
        {
          "indexed": false,
          "internalType": "string",
          "name": "supplierName",
          "type": "string"
        },
        {
          "indexed": false,
          "internalType": "address",
          "name": "ID",
          "type": "address"
        },
        {
          "indexed": false,
          "internalType": "string",
          "name": "primaryContact",
          "type": "string"
        }
      ],
      "name": "LogNewSupplier",
      "type": "event"
    },
    {
      "anonymous": false,
      "inputs": [
        {
          "indexed": false,
          "internalType": "string",
          "name": "charityName",
          "type": "string"
        },
        {
          "indexed": false,
          "internalType": "string",
          "name": "supplier",
          "type": "string"
        },
        {
          "indexed": false,
          "internalType": "bool",
          "name": "completedSelection",
          "type": "bool"
        }
      ],
      "name": "LogSelectCharity",
      "type": "event"
    },
    {
      "anonymous": false,
      "inputs": [
        {
          "indexed": true,
          "internalType": "address",
          "name": "from",
          "type": "address"
        },
        {
          "indexed": true,
          "internalType": "address",
          "name": "to",
          "type": "address"
        },
        {
          "indexed": false,
          "internalType": "uint256",
          "name": "value",
          "type": "uint256"
        }
      ],
      "name": "Transfer",
      "type": "event"
    },
    {
      "inputs": [
        {
          "internalType": "address",
          "name": "owner",
          "type": "address"
        },
        {
          "internalType": "address",
          "name": "spender",
          "type": "address"
        }
      ],
      "name": "allowance",
      "outputs": [
        {
          "internalType": "uint256",
          "name": "",
          "type": "uint256"
        }
      ],
      "stateMutability": "view",
      "type": "function",
      "constant": true
    },
    {
      "inputs": [
        {
          "internalType": "address",
          "name": "spender",
          "type": "address"
        },
        {
          "internalType": "uint256",
          "name": "amount",
          "type": "uint256"
        }
      ],
      "name": "approve",
      "outputs": [
        {
          "internalType": "bool",
          "name": "",
          "type": "bool"
        }
      ],
      "stateMutability": "nonpayable",
      "type": "function"
    },
    {
      "inputs": [
        {
          "internalType": "address",
          "name": "account",
          "type": "address"
        }
      ],
      "name": "balanceOf",
      "outputs": [
        {
          "internalType": "uint256",
          "name": "",
          "type": "uint256"
        }
      ],
      "stateMutability": "view",
      "type": "function",
      "constant": true
    },
    {
      "inputs": [],
      "name": "decimals",
      "outputs": [
        {
          "internalType": "uint8",
          "name": "",
          "type": "uint8"
        }
      ],
      "stateMutability": "view",
      "type": "function",
      "constant": true
    },
    {
      "inputs": [
        {
          "internalType": "address",
          "name": "spender",
          "type": "address"
        },
        {
          "internalType": "uint256",
          "name": "subtractedValue",
          "type": "uint256"
        }
      ],
      "name": "decreaseAllowance",
      "outputs": [
        {
          "internalType": "bool",
          "name": "",
          "type": "bool"
        }
      ],
      "stateMutability": "nonpayable",
      "type": "function"
    },
    {
      "inputs": [
        {
          "internalType": "address",
          "name": "spender",
          "type": "address"
        },
        {
          "internalType": "uint256",
          "name": "addedValue",
          "type": "uint256"
        }
      ],
      "name": "increaseAllowance",
      "outputs": [
        {
          "internalType": "bool",
          "name": "",
          "type": "bool"
        }
      ],
      "stateMutability": "nonpayable",
      "type": "function"
    },
    {
      "inputs": [],
      "name": "name",
      "outputs": [
        {
          "internalType": "string",
          "name": "",
          "type": "string"
        }
      ],
      "stateMutability": "view",
      "type": "function",
      "constant": true
    },
    {
      "inputs": [],
      "name": "symbol",
      "outputs": [
        {
          "internalType": "string",
          "name": "",
          "type": "string"
        }
      ],
      "stateMutability": "view",
      "type": "function",
      "constant": true
    },
    {
      "inputs": [],
      "name": "totalSupply",
      "outputs": [
        {
          "internalType": "uint256",
          "name": "",
          "type": "uint256"
        }
      ],
      "stateMutability": "view",
      "type": "function",
      "constant": true
    },
    {
      "inputs": [
        {
          "internalType": "address",
          "name": "recipient",
          "type": "address"
        },
        {
          "internalType": "uint256",
          "name": "amount",
          "type": "uint256"
        }
      ],
      "name": "transfer",
      "outputs": [
        {
          "internalType": "bool",
          "name": "",
          "type": "bool"
        }
      ],
      "stateMutability": "nonpayable",
      "type": "function"
    },
    {
      "inputs": [
        {
          "internalType": "address",
          "name": "sender",
          "type": "address"
        },
        {
          "internalType": "address",
          "name": "recipient",
          "type": "address"
        },
        {
          "internalType": "uint256",
          "name": "amount",
          "type": "uint256"
        }
      ],
      "name": "transferFrom",
      "outputs": [
        {
          "internalType": "bool",
          "name": "",
          "type": "bool"
        }
      ],
      "stateMutability": "nonpayable",
      "type": "function"
    },
    {
      "inputs": [
        {
          "internalType": "string",
          "name": "charity",
          "type": "string"
        }
      ],
      "name": "getPair",
      "outputs": [
        {
          "internalType": "string",
          "name": "contractor",
          "type": "string"
        }
      ],
      "stateMutability": "view",
      "type": "function",
      "constant": true
    },
    {
      "inputs": [
        {
          "internalType": "string",
          "name": "charity",
          "type": "string"
        },
        {
          "internalType": "address",
          "name": "ID",
          "type": "address"
        },
        {
          "internalType": "string",
          "name": "request",
          "type": "string"
        },
        {
          "internalType": "uint256",
          "name": "members",
          "type": "uint256"
        },
        {
          "internalType": "string",
          "name": "primaryContact",
          "type": "string"
        },
        {
          "internalType": "bool",
          "name": "urgent",
          "type": "bool"
        },
        {
          "internalType": "enum RequestChain.Category",
          "name": "category",
          "type": "uint8"
        }
      ],
      "name": "addRequest",
      "outputs": [],
      "stateMutability": "nonpayable",
      "type": "function"
    },
    {
      "inputs": [
        {
          "internalType": "string",
          "name": "charity",
          "type": "string"
        }
      ],
      "name": "getCharity",
      "outputs": [
        {
          "internalType": "address",
          "name": "ID",
          "type": "address"
        },
        {
          "internalType": "uint256",
          "name": "members",
          "type": "uint256"
        },
        {
          "internalType": "string",
          "name": "primaryContact",
          "type": "string"
        },
        {
          "internalType": "string",
          "name": "request",
          "type": "string"
        },
        {
          "internalType": "enum RequestChain.Category",
          "name": "category",
          "type": "uint8"
        },
        {
          "internalType": "uint256",
          "name": "tokenReward",
          "type": "uint256"
        },
        {
          "internalType": "bool",
          "name": "isSelected",
          "type": "bool"
        },
        {
          "internalType": "uint256",
          "name": "timestamp",
          "type": "uint256"
        },
        {
          "internalType": "uint256",
          "name": "deadline",
          "type": "uint256"
        }
      ],
      "stateMutability": "view",
      "type": "function",
      "constant": true
    },
    {
      "inputs": [],
      "name": "requestCount",
      "outputs": [
        {
          "internalType": "uint256",
          "name": "",
          "type": "uint256"
        }
      ],
      "stateMutability": "view",
      "type": "function",
      "constant": true
    },
    {
      "inputs": [
        {
          "internalType": "uint256",
          "name": "i",
          "type": "uint256"
        }
      ],
      "name": "getRequest",
      "outputs": [
        {
          "internalType": "string",
          "name": "charity",
          "type": "string"
        }
      ],
      "stateMutability": "view",
      "type": "function",
      "constant": true
    },
    {
      "inputs": [
        {
          "internalType": "string",
          "name": "supplier",
          "type": "string"
        },
        {
          "internalType": "address",
          "name": "ID",
          "type": "address"
        },
        {
          "internalType": "uint256",
          "name": "members",
          "type": "uint256"
        },
        {
          "internalType": "string",
          "name": "primaryContact",
          "type": "string"
        },
        {
          "internalType": "enum RequestChain.Category",
          "name": "category",
          "type": "uint8"
        }
      ],
      "name": "addSupplier",
      "outputs": [],
      "stateMutability": "nonpayable",
      "type": "function"
    },
    {
      "inputs": [
        {
          "internalType": "string",
          "name": "supplier",
          "type": "string"
        },
        {
          "internalType": "uint256",
          "name": "i",
          "type": "uint256"
        }
      ],
      "name": "pendingRequests",
      "outputs": [
        {
          "internalType": "string",
          "name": "charity",
          "type": "string"
        },
        {
          "internalType": "bool",
          "name": "urgency",
          "type": "bool"
        },
        {
          "internalType": "uint256",
          "name": "reward",
          "type": "uint256"
        }
      ],
      "stateMutability": "view",
      "type": "function",
      "constant": true
    },
    {
      "inputs": [
        {
          "internalType": "string",
          "name": "charity",
          "type": "string"
        },
        {
          "internalType": "string",
          "name": "supplier",
          "type": "string"
        },
        {
          "internalType": "address",
          "name": "suppID",
          "type": "address"
        }
      ],
      "name": "selectCharity",
      "outputs": [
        {
          "internalType": "bool",
          "name": "isSelected",
          "type": "bool"
        }
      ],
      "stateMutability": "nonpayable",
      "type": "function"
    },
    {
      "inputs": [
        {
          "internalType": "string",
          "name": "charity",
          "type": "string"
        },
        {
          "internalType": "string",
          "name": "supplier",
          "type": "string"
        },
        {
          "internalType": "address",
          "name": "suppID",
          "type": "address"
        }
      ],
      "name": "delivery",
      "outputs": [],
      "stateMutability": "nonpayable",
      "type": "function"
    },
    {
      "inputs": [
        {
          "internalType": "string",
          "name": "charity",
          "type": "string"
        },
        {
          "internalType": "uint256",
          "name": "i",
          "type": "uint256"
        }
      ],
      "name": "popRequest",
      "outputs": [],
      "stateMutability": "nonpayable",
      "type": "function"
    },
    {
      "inputs": [
        {
          "internalType": "string",
          "name": "x",
          "type": "string"
        }
      ],
      "name": "searchInfo",
      "outputs": [],
      "stateMutability": "view",
      "type": "function",
      "constant": true
    },
    {
      "inputs": [
        {
          "internalType": "string",
          "name": "x",
          "type": "string"
        }
      ],
      "name": "getSupplier",
      "outputs": [
        {
          "internalType": "address",
          "name": "supplierID",
          "type": "address"
        },
        {
          "internalType": "uint256",
          "name": "members",
          "type": "uint256"
        },
        {
          "internalType": "enum RequestChain.Category",
          "name": "category",
          "type": "uint8"
        },
        {
          "internalType": "string",
          "name": "primaryContact",
          "type": "string"
        },
        {
          "internalType": "uint256",
          "name": "timestamp",
          "type": "uint256"
        },
        {
          "internalType": "uint256",
          "name": "completedRequests",
          "type": "uint256"
        },
        {
          "internalType": "uint256",
          "name": "incompletedRequests",
          "type": "uint256"
        }
      ],
      "stateMutability": "view",
      "type": "function",
      "constant": true
    }
  ],
  "bytecode": "0x60806040523480156200001157600080fd5b506040518060400160405280600d81526020017f4368617269747920546f6b656e000000000000000000000000000000000000008152506040518060400160405280600481526020017f43544b4e00000000000000000000000000000000000000000000000000000000815250816003908051906020019062000096929190620003be565b508060049080519060200190620000af929190620003be565b506012600560006101000a81548160ff021916908360ff160217905550505033600760006101000a81548173ffffffffffffffffffffffffffffffffffffffff021916908373ffffffffffffffffffffffffffffffffffffffff1602179055506000620f424090506200014b600760009054906101000a900473ffffffffffffffffffffffffffffffffffffffff16826200015260201b60201c565b506200046d565b600073ffffffffffffffffffffffffffffffffffffffff168273ffffffffffffffffffffffffffffffffffffffff161415620001f6576040517f08c379a000000000000000000000000000000000000000000000000000000000815260040180806020018281038252601f8152602001807f45524332303a206d696e7420746f20746865207a65726f20616464726573730081525060200191505060405180910390fd5b6200020a600083836200033060201b60201c565b62000226816002546200033560201b620048c71790919060201c565b60028190555062000284816000808573ffffffffffffffffffffffffffffffffffffffff1673ffffffffffffffffffffffffffffffffffffffff168152602001908152602001600020546200033560201b620048c71790919060201c565b6000808473ffffffffffffffffffffffffffffffffffffffff1673ffffffffffffffffffffffffffffffffffffffff168152602001908152602001600020819055508173ffffffffffffffffffffffffffffffffffffffff16600073ffffffffffffffffffffffffffffffffffffffff167fddf252ad1be2c89b69c2b068fc378daa952ba7f163c4a11628f55a4df523b3ef836040518082815260200191505060405180910390a35050565b505050565b600080828401905083811015620003b4576040517f08c379a000000000000000000000000000000000000000000000000000000000815260040180806020018281038252601b8152602001807f536166654d6174683a206164646974696f6e206f766572666c6f77000000000081525060200191505060405180910390fd5b8091505092915050565b828054600181600116156101000203166002900490600052602060002090601f016020900481019282601f106200040157805160ff191683800117855562000432565b8280016001018555821562000432579182015b828111156200043157825182559160200191906001019062000414565b5b50905062000441919062000445565b5090565b6200046a91905b80821115620004665760008160009055506001016200044c565b5090565b90565b6153e2806200047d6000396000f3fe608060405234801561001057600080fd5b506004361061014d5760003560e01c80638ad95d0e116100c3578063a9059cbb1161007c578063a9059cbb14610f63578063c042825914610fc9578063c58343ef14611153578063dd62ed3e146111fa578063f449a7b914611272578063f9919bde146113e45761014d565b80638ad95d0e146108c857806390b5bf0414610ad75780639548369614610b9257806395d89b4114610ce257806398ad064214610d65578063a457c2d714610efd5761014d565b8063313ce56711610115578063313ce5671461050b578063395093511461052f5780635badbe4c146105955780636ddb233d146105b357806370a082311461073c57806374adf539146107945761014d565b806306fdde03146101525780630781dd6c146101d5578063095ea7b31461040157806318160ddd1461046757806323b872dd14610485575b600080fd5b61015a6114a9565b6040518080602001828103825283818151815260200191508051906020019080838360005b8381101561019a57808201518184015260208101905061017f565b50505050905090810190601f1680156101c75780820380516001836020036101000a031916815260200191505b509250505060405180910390f35b6103ff600480360360e08110156101eb57600080fd5b810190808035906020019064010000000081111561020857600080fd5b82018360208201111561021a57600080fd5b8035906020019184600183028401116401000000008311171561023c57600080fd5b91908080601f016020809104026020016040519081016040528093929190818152602001838380828437600081840152601f19601f820116905080830192505050505050509192919290803573ffffffffffffffffffffffffffffffffffffffff169060200190929190803590602001906401000000008111156102bf57600080fd5b8201836020820111156102d157600080fd5b803590602001918460018302840111640100000000831117156102f357600080fd5b91908080601f016020809104026020016040519081016040528093929190818152602001838380828437600081840152601f19601f820116905080830192505050505050509192919290803590602001909291908035906020019064010000000081111561036057600080fd5b82018360208201111561037257600080fd5b8035906020019184600183028401116401000000008311171561039457600080fd5b91908080601f016020809104026020016040519081016040528093929190818152602001838380828437600081840152601f19601f820116905080830192505050505050509192919290803515159060200190929190803560ff16906020019092919050505061154b565b005b61044d6004803603604081101561041757600080fd5b81019080803573ffffffffffffffffffffffffffffffffffffffff16906020019092919080359060200190929190505050611c4a565b604051808215151515815260200191505060405180910390f35b61046f611c68565b6040518082815260200191505060405180910390f35b6104f16004803603606081101561049b57600080fd5b81019080803573ffffffffffffffffffffffffffffffffffffffff169060200190929190803573ffffffffffffffffffffffffffffffffffffffff16906020019092919080359060200190929190505050611c72565b604051808215151515815260200191505060405180910390f35b610513611d4b565b604051808260ff1660ff16815260200191505060405180910390f35b61057b6004803603604081101561054557600080fd5b81019080803573ffffffffffffffffffffffffffffffffffffffff16906020019092919080359060200190929190505050611d62565b604051808215151515815260200191505060405180910390f35b61059d611e15565b6040518082815260200191505060405180910390f35b61073a600480360360a08110156105c957600080fd5b81019080803590602001906401000000008111156105e657600080fd5b8201836020820111156105f857600080fd5b8035906020019184600183028401116401000000008311171561061a57600080fd5b91908080601f016020809104026020016040519081016040528093929190818152602001838380828437600081840152601f19601f820116905080830192505050505050509192919290803573ffffffffffffffffffffffffffffffffffffffff16906020019092919080359060200190929190803590602001906401000000008111156106a757600080fd5b8201836020820111156106b957600080fd5b803590602001918460018302840111640100000000831117156106db57600080fd5b91908080601f016020809104026020016040519081016040528093929190818152602001838380828437600081840152601f19601f820116905080830192505050505050509192919290803560ff169060200190929190505050611e22565b005b61077e6004803603602081101561075257600080fd5b81019080803573ffffffffffffffffffffffffffffffffffffffff16906020019092919050505061231c565b6040518082815260200191505060405180910390f35b61084d600480360360208110156107aa57600080fd5b81019080803590602001906401000000008111156107c757600080fd5b8201836020820111156107d957600080fd5b803590602001918460018302840111640100000000831117156107fb57600080fd5b91908080601f016020809104026020016040519081016040528093929190818152602001838380828437600081840152601f19601f820116905080830192505050505050509192919290505050612364565b6040518080602001828103825283818151815260200191508051906020019080838360005b8381101561088d578082015181840152602081019050610872565b50505050905090810190601f1680156108ba5780820380516001836020036101000a031916815260200191505b509250505060405180910390f35b610981600480360360208110156108de57600080fd5b81019080803590602001906401000000008111156108fb57600080fd5b82018360208201111561090d57600080fd5b8035906020019184600183028401116401000000008311171561092f57600080fd5b91908080601f016020809104026020016040519081016040528093929190818152602001838380828437600081840152601f19601f82011690508083019250505050505050919291929050505061246f565b604051808a73ffffffffffffffffffffffffffffffffffffffff1673ffffffffffffffffffffffffffffffffffffffff16815260200189815260200180602001806020018860068111156109d157fe5b60ff1681526020018781526020018615151515815260200185815260200184815260200183810383528a818151815260200191508051906020019080838360005b83811015610a2d578082015181840152602081019050610a12565b50505050905090810190601f168015610a5a5780820380516001836020036101000a031916815260200191505b50838103825289818151815260200191508051906020019080838360005b83811015610a93578082015181840152602081019050610a78565b50505050905090810190601f168015610ac05780820380516001836020036101000a031916815260200191505b509b50505050505050505050505060405180910390f35b610b9060048036036020811015610aed57600080fd5b8101908080359060200190640100000000811115610b0a57600080fd5b820183602082011115610b1c57600080fd5b80359060200191846001830284011164010000000083111715610b3e57600080fd5b91908080601f016020809104026020016040519081016040528093929190818152602001838380828437600081840152601f19601f820116905080830192505050505050509192919290505050612874565b005b610c5560048036036040811015610ba857600080fd5b8101908080359060200190640100000000811115610bc557600080fd5b820183602082011115610bd757600080fd5b80359060200191846001830284011164010000000083111715610bf957600080fd5b91908080601f016020809104026020016040519081016040528093929190818152602001838380828437600081840152601f19601f8201169050808301925050505050505091929192908035906020019092919050505061292a565b604051808060200184151515158152602001838152602001828103825285818151815260200191508051906020019080838360005b83811015610ca5578082015181840152602081019050610c8a565b50505050905090810190601f168015610cd25780820380516001836020036101000a031916815260200191505b5094505050505060405180910390f35b610cea612c46565b6040518080602001828103825283818151815260200191508051906020019080838360005b83811015610d2a578082015181840152602081019050610d0f565b50505050905090810190601f168015610d575780820380516001836020036101000a031916815260200191505b509250505060405180910390f35b610e1e60048036036020811015610d7b57600080fd5b8101908080359060200190640100000000811115610d9857600080fd5b820183602082011115610daa57600080fd5b80359060200191846001830284011164010000000083111715610dcc57600080fd5b91908080601f016020809104026020016040519081016040528093929190818152602001838380828437600081840152601f19601f820116905080830192505050505050509192919290505050612ce8565b604051808873ffffffffffffffffffffffffffffffffffffffff1673ffffffffffffffffffffffffffffffffffffffff168152602001878152602001866006811115610e6657fe5b60ff16815260200180602001858152602001848152602001838152602001828103825286818151815260200191508051906020019080838360005b83811015610ebc578082015181840152602081019050610ea1565b50505050905090810190601f168015610ee95780820380516001836020036101000a031916815260200191505b509850505050505050505060405180910390f35b610f4960048036036040811015610f1357600080fd5b81019080803573ffffffffffffffffffffffffffffffffffffffff16906020019092919080359060200190929190505050613054565b604051808215151515815260200191505060405180910390f35b610faf60048036036040811015610f7957600080fd5b81019080803573ffffffffffffffffffffffffffffffffffffffff16906020019092919080359060200190929190505050613121565b604051808215151515815260200191505060405180910390f35b61113960048036036060811015610fdf57600080fd5b8101908080359060200190640100000000811115610ffc57600080fd5b82018360208201111561100e57600080fd5b8035906020019184600183028401116401000000008311171561103057600080fd5b91908080601f016020809104026020016040519081016040528093929190818152602001838380828437600081840152601f19601f8201169050808301925050505050505091929192908035906020019064010000000081111561109357600080fd5b8201836020820111156110a557600080fd5b803590602001918460018302840111640100000000831117156110c757600080fd5b91908080601f016020809104026020016040519081016040528093929190818152602001838380828437600081840152601f19601f820116905080830192505050505050509192919290803573ffffffffffffffffffffffffffffffffffffffff16906020019092919050505061313f565b604051808215151515815260200191505060405180910390f35b61117f6004803603602081101561116957600080fd5b8101908080359060200190929190505050613957565b6040518080602001828103825283818151815260200191508051906020019080838360005b838110156111bf5780820151818401526020810190506111a4565b50505050905090810190601f1680156111ec5780820380516001836020036101000a031916815260200191505b509250505060405180910390f35b61125c6004803603604081101561121057600080fd5b81019080803573ffffffffffffffffffffffffffffffffffffffff169060200190929190803573ffffffffffffffffffffffffffffffffffffffff169060200190929190505050613a10565b6040518082815260200191505060405180910390f35b6113e26004803603606081101561128857600080fd5b81019080803590602001906401000000008111156112a557600080fd5b8201836020820111156112b757600080fd5b803590602001918460018302840111640100000000831117156112d957600080fd5b91908080601f016020809104026020016040519081016040528093929190818152602001838380828437600081840152601f19601f8201169050808301925050505050505091929192908035906020019064010000000081111561133c57600080fd5b82018360208201111561134e57600080fd5b8035906020019184600183028401116401000000008311171561137057600080fd5b91908080601f016020809104026020016040519081016040528093929190818152602001838380828437600081840152601f19601f820116905080830192505050505050509192919290803573ffffffffffffffffffffffffffffffffffffffff169060200190929190505050613a97565b005b6114a7600480360360408110156113fa57600080fd5b810190808035906020019064010000000081111561141757600080fd5b82018360208201111561142957600080fd5b8035906020019184600183028401116401000000008311171561144b57600080fd5b91908080601f016020809104026020016040519081016040528093929190818152602001838380828437600081840152601f19601f82011690508083019250505050505050919291929080359060200190929190505050613ea7565b005b606060038054600181600116156101000203166002900480601f0160208091040260200160405190810160405280929190818152602001828054600181600116156101000203166002900480156115415780601f1061151657610100808354040283529160200191611541565b820191906000526020600020905b81548152906001019060200180831161152457829003601f168201915b5050505050905090565b61155487614092565b156115aa576040517f08c379a00000000000000000000000000000000000000000000000000000000081526004018080602001828103825260228152602001806152d36022913960400191505060405180910390fd5b6115b486886141c0565b15611627576040517f08c379a000000000000000000000000000000000000000000000000000000000815260040180806020018281038252601c8152602001807f57696c6c206e6f7420616c6c6f77206475706c6963617465204944730000000081525060200191505060405180910390fd5b61162f614ee1565b600a886040518082805190602001908083835b602083106116655780518252602082019150602081019050602083039250611642565b6001836020036101000a038019825116818451168082178552505050505050905001915050908152602001604051809103902060405180610160016040529081600082018054600181600116156101000203166002900480601f01602080910402602001604051908101604052809291908181526020018280546001816001161561010002031660029004801561173d5780601f106117125761010080835404028352916020019161173d565b820191906000526020600020905b81548152906001019060200180831161172057829003601f168201915b505050505081526020016001820160009054906101000a900473ffffffffffffffffffffffffffffffffffffffff1673ffffffffffffffffffffffffffffffffffffffff1673ffffffffffffffffffffffffffffffffffffffff168152602001600282018054600181600116156101000203166002900480601f0160208091040260200160405190810160405280929190818152602001828054600181600116156101000203166002900480156118355780601f1061180a57610100808354040283529160200191611835565b820191906000526020600020905b81548152906001019060200180831161181857829003601f168201915b5050505050815260200160038201548152602001600482018054600181600116156101000203166002900480601f0160208091040260200160405190810160405280929190818152602001828054600181600116156101000203166002900480156118e15780601f106118b6576101008083540402835291602001916118e1565b820191906000526020600020905b8154815290600101906020018083116118c457829003601f168201915b505050505081526020016005820160009054906101000a900460ff16151515158152602001600682015481526020016007820160009054906101000a900460ff161515151581526020016007820160019054906101000a900460ff16600681111561194857fe5b600681111561195357fe5b815260200160088201548152602001600982015481525050905087816000018190525086816020019073ffffffffffffffffffffffffffffffffffffffff16908173ffffffffffffffffffffffffffffffffffffffff168152505084816060018181525050858160400181905250838160800181905250828160a00190151590811515815250506001151583151514156119f75760048160c0018181525050611a03565b60028160c00181815250505b818161010001906006811115611a1557fe5b90816006811115611a2257fe5b8152505060008160e0019015159081151581525050600688908060018154018082558091505060019003906000526020600020016000909190919091509080519060200190611a72929190614f60565b5042816101400181815250507f420d512cd591b3f748d9dc5db9798cc497f2356b35cbec3f9233be8b88b5adf088888887878660c0015160405180806020018773ffffffffffffffffffffffffffffffffffffffff1673ffffffffffffffffffffffffffffffffffffffff16815260200180602001806020018615151515815260200185815260200184810384528a818151815260200191508051906020019080838360005b83811015611b33578082015181840152602081019050611b18565b50505050905090810190601f168015611b605780820380516001836020036101000a031916815260200191505b50848103835288818151815260200191508051906020019080838360005b83811015611b99578082015181840152602081019050611b7e565b50505050905090810190601f168015611bc65780820380516001836020036101000a031916815260200191505b50848103825287818151815260200191508051906020019080838360005b83811015611bff578082015181840152602081019050611be4565b50505050905090810190601f168015611c2c5780820380516001836020036101000a031916815260200191505b50995050505050505050505060405180910390a15050505050505050565b6000611c5e611c57614347565b848461434f565b6001905092915050565b6000600254905090565b6000611c7f848484614546565b611d4084611c8b614347565b611d3b856040518060600160405280602881526020016152f560289139600160008b73ffffffffffffffffffffffffffffffffffffffff1673ffffffffffffffffffffffffffffffffffffffff1681526020019081526020016000206000611cf1614347565b73ffffffffffffffffffffffffffffffffffffffff1673ffffffffffffffffffffffffffffffffffffffff168152602001908152602001600020546148079092919063ffffffff16565b61434f565b600190509392505050565b6000600560009054906101000a900460ff16905090565b6000611e0b611d6f614347565b84611e068560016000611d80614347565b73ffffffffffffffffffffffffffffffffffffffff1673ffffffffffffffffffffffffffffffffffffffff16815260200190815260200160002060008973ffffffffffffffffffffffffffffffffffffffff1673ffffffffffffffffffffffffffffffffffffffff168152602001908152602001600020546148c790919063ffffffff16565b61434f565b6001905092915050565b6000600680549050905090565b611e2b8561494f565b15611e81576040517f08c379a000000000000000000000000000000000000000000000000000000000815260040180806020018281038252602281526020018061531d6022913960400191505060405180910390fd5b611e8b84866141c0565b15611efe576040517f08c379a000000000000000000000000000000000000000000000000000000000815260040180806020018281038252601c8152602001807f57696c6c206e6f7420616c6c6f77206475706c6963617465204944730000000081525060200191505060405180910390fd5b611f06614fe0565b600b866040518082805190602001908083835b60208310611f3c5780518252602082019150602081019050602083039250611f19565b6001836020036101000a03801982511681845116808217855250505050505090500191505090815260200160405180910390206040518060c0016040529081600082018054600181600116156101000203166002900480601f0160208091040260200160405190810160405280929190818152602001828054600181600116156101000203166002900480156120135780601f10611fe857610100808354040283529160200191612013565b820191906000526020600020905b815481529060010190602001808311611ff657829003601f168201915b505050505081526020016001820160009054906101000a900473ffffffffffffffffffffffffffffffffffffffff1673ffffffffffffffffffffffffffffffffffffffff1673ffffffffffffffffffffffffffffffffffffffff16815260200160028201548152602001600382018054600181600116156101000203166002900480601f0160208091040260200160405190810160405280929190818152602001828054600181600116156101000203166002900480156121155780601f106120ea57610100808354040283529160200191612115565b820191906000526020600020905b8154815290600101906020018083116120f857829003601f168201915b505050505081526020016004820160009054906101000a900460ff16600681111561213c57fe5b600681111561214757fe5b81526020016005820154815250509050428160a001818152505085816000018190525084816020019073ffffffffffffffffffffffffffffffffffffffff16908173ffffffffffffffffffffffffffffffffffffffff16815250508381604001818152505082816060018190525081816080019060068111156121c657fe5b908160068111156121d357fe5b815250507f7e3eaa7effdcfe49a24fe2f552f654439198959781a66b3ca43366b0a8322e1d86868560405180806020018473ffffffffffffffffffffffffffffffffffffffff1673ffffffffffffffffffffffffffffffffffffffff16815260200180602001838103835286818151815260200191508051906020019080838360005b83811015612271578082015181840152602081019050612256565b50505050905090810190601f16801561229e5780820380516001836020036101000a031916815260200191505b50838103825284818151815260200191508051906020019080838360005b838110156122d75780820151818401526020810190506122bc565b50505050905090810190601f1680156123045780820380516001836020036101000a031916815260200191505b509550505050505060405180910390a1505050505050565b60008060008373ffffffffffffffffffffffffffffffffffffffff1673ffffffffffffffffffffffffffffffffffffffff168152602001908152602001600020549050919050565b60606008826040518082805190602001908083835b6020831061239c5780518252602082019150602081019050602083039250612379565b6001836020036101000a03801982511681845116808217855250505050505090500191505090815260200160405180910390208054600181600116156101000203166002900480601f0160208091040260200160405190810160405280929190818152602001828054600181600116156101000203166002900480156124635780601f1061243857610100808354040283529160200191612463565b820191906000526020600020905b81548152906001019060200180831161244657829003601f168201915b50505050509050919050565b60008060608060008060008060006124868a614092565b6124db576040517f08c379a00000000000000000000000000000000000000000000000000000000081526004018080602001828103825260248152602001806152796024913960400191505060405180910390fd5b6124e3614ee1565b600a8b6040518082805190602001908083835b6020831061251957805182526020820191506020810190506020830392506124f6565b6001836020036101000a038019825116818451168082178552505050505050905001915050908152602001604051809103902060405180610160016040529081600082018054600181600116156101000203166002900480601f0160208091040260200160405190810160405280929190818152602001828054600181600116156101000203166002900480156125f15780601f106125c6576101008083540402835291602001916125f1565b820191906000526020600020905b8154815290600101906020018083116125d457829003601f168201915b505050505081526020016001820160009054906101000a900473ffffffffffffffffffffffffffffffffffffffff1673ffffffffffffffffffffffffffffffffffffffff1673ffffffffffffffffffffffffffffffffffffffff168152602001600282018054600181600116156101000203166002900480601f0160208091040260200160405190810160405280929190818152602001828054600181600116156101000203166002900480156126e95780601f106126be576101008083540402835291602001916126e9565b820191906000526020600020905b8154815290600101906020018083116126cc57829003601f168201915b5050505050815260200160038201548152602001600482018054600181600116156101000203166002900480601f0160208091040260200160405190810160405280929190818152602001828054600181600116156101000203166002900480156127955780601f1061276a57610100808354040283529160200191612795565b820191906000526020600020905b81548152906001019060200180831161277857829003601f168201915b505050505081526020016005820160009054906101000a900460ff16151515158152602001600682015481526020016007820160009054906101000a900460ff161515151581526020016007820160019054906101000a900460ff1660068111156127fc57fe5b600681111561280757fe5b815260200160088201548152602001600982015481525050905080602001518160600151826080015183604001518461010001518560c001518661012001514210876101400151886101200151995099509950995099509950995099509950509193959799909294969850565b61287d81614092565b8061288d575061288c8161494f565b5b6128e2576040517f08c379a000000000000000000000000000000000000000000000000000000000815260040180806020018281038252602a8152602001806151f8602a913960400191505060405180910390fd5b6128eb81614092565b15612907576128f98161246f565b505050505050505050612927565b6129108161494f565b156129265761291e81612ce8565b505050505050505b5b50565b6060600080600a6006858154811061293e57fe5b9060005260206000200160405180828054600181600116156101000203166002900480156129a35780601f106129815761010080835404028352918201916129a3565b820191906000526020600020905b81548152906001019060200180831161298f575b5050915050908152602001604051809103902060070160019054906101000a900460ff1660068111156129d257fe5b600b866040518082805190602001908083835b60208310612a0857805182526020820191506020810190506020830392506129e5565b6001836020036101000a038019825116818451168082178552505050505050905001915050908152602001604051809103902060040160009054906101000a900460ff166006811115612a5757fe5b1415612c3e5760068481548110612a6a57fe5b90600052602060002001600a60068681548110612a8357fe5b906000526020600020016040518082805460018160011615610100020316600290048015612ae85780601f10612ac6576101008083540402835291820191612ae8565b820191906000526020600020905b815481529060010190602001808311612ad4575b5050915050908152602001604051809103902060050160009054906101000a900460ff16600a60068781548110612b1b57fe5b906000526020600020016040518082805460018160011615610100020316600290048015612b805780601f10612b5e576101008083540402835291820191612b80565b820191906000526020600020905b815481529060010190602001808311612b6c575b5050915050908152602001604051809103902060060154828054600181600116156101000203166002900480601f016020809104026020016040519081016040528092919081815260200182805460018160011615610100020316600290048015612c2c5780601f10612c0157610100808354040283529160200191612c2c565b820191906000526020600020905b815481529060010190602001808311612c0f57829003601f168201915b50505050509250925092509250612c3f565b5b9250925092565b606060048054600181600116156101000203166002900480601f016020809104026020016040519081016040528092919081815260200182805460018160011615610100020316600290048015612cde5780601f10612cb357610100808354040283529160200191612cde565b820191906000526020600020905b815481529060010190602001808311612cc157829003601f168201915b5050505050905090565b600080600060606000806000612cfc614fe0565b600b896040518082805190602001908083835b60208310612d325780518252602082019150602081019050602083039250612d0f565b6001836020036101000a03801982511681845116808217855250505050505090500191505090815260200160405180910390206040518060c0016040529081600082018054600181600116156101000203166002900480601f016020809104026020016040519081016040528092919081815260200182805460018160011615610100020316600290048015612e095780601f10612dde57610100808354040283529160200191612e09565b820191906000526020600020905b815481529060010190602001808311612dec57829003601f168201915b505050505081526020016001820160009054906101000a900473ffffffffffffffffffffffffffffffffffffffff1673ffffffffffffffffffffffffffffffffffffffff1673ffffffffffffffffffffffffffffffffffffffff16815260200160028201548152602001600382018054600181600116156101000203166002900480601f016020809104026020016040519081016040528092919081815260200182805460018160011615610100020316600290048015612f0b5780601f10612ee057610100808354040283529160200191612f0b565b820191906000526020600020905b815481529060010190602001808311612eee57829003601f168201915b505050505081526020016004820160009054906101000a900460ff166006811115612f3257fe5b6006811115612f3d57fe5b8152602001600582015481525050905080602001518160400151826080015183606001518460a00151600c8e6040518082805190602001908083835b60208310612f9c5780518252602082019150602081019050602083039250612f79565b6001836020036101000a038019825116818451168082178552505050505050905001915050908152602001604051809103902054600d8f6040518082805190602001908083835b602083106130065780518252602082019150602081019050602083039250612fe3565b6001836020036101000a038019825116818451168082178552505050505050905001915050908152602001604051809103902054975097509750975097509750975050919395979092949650565b6000613117613061614347565b8461311285604051806060016040528060258152602001615388602591396001600061308b614347565b73ffffffffffffffffffffffffffffffffffffffff1673ffffffffffffffffffffffffffffffffffffffff16815260200190815260200160002060008a73ffffffffffffffffffffffffffffffffffffffff1673ffffffffffffffffffffffffffffffffffffffff168152602001908152602001600020546148079092919063ffffffff16565b61434f565b6001905092915050565b600061313561312e614347565b8484614546565b6001905092915050565b6000600a846040518082805190602001908083835b602083106131775780518252602082019150602081019050602083039250613154565b6001836020036101000a03801982511681845116808217855250505050505090500191505090815260200160405180910390206008015442111561323b576000600a856040518082805190602001908083835b602083106131ed57805182526020820191506020810190506020830392506131ca565b6001836020036101000a038019825116818451168082178552505050505050905001915050908152602001604051809103902060070160006101000a81548160ff0219169083151502179055505b8173ffffffffffffffffffffffffffffffffffffffff16600b846040518082805190602001908083835b602083106132885780518252602082019150602081019050602083039250613265565b6001836020036101000a038019825116818451168082178552505050505050905001915050908152602001604051809103902060010160009054906101000a900473ffffffffffffffffffffffffffffffffffffffff1673ffffffffffffffffffffffffffffffffffffffff161461334b576040517f08c379a00000000000000000000000000000000000000000000000000000000081526004018080602001828103825260318152602001806152486031913960400191505060405180910390fd5b600b836040518082805190602001908083835b60208310613381578051825260208201915060208101905060208303925061335e565b6001836020036101000a038019825116818451168082178552505050505050905001915050908152602001604051809103902060040160009054906101000a900460ff1660068111156133d057fe5b600a856040518082805190602001908083835b6020831061340657805182526020820191506020810190506020830392506133e3565b6001836020036101000a038019825116818451168082178552505050505050905001915050908152602001604051809103902060070160019054906101000a900460ff16600681111561345557fe5b146134ab576040517f08c379a00000000000000000000000000000000000000000000000000000000081526004018080602001828103825260258152602001806151b16025913960400191505060405180910390fd5b60001515600a856040518082805190602001908083835b602083106134e557805182526020820191506020810190506020830392506134c2565b6001836020036101000a038019825116818451168082178552505050505050905001915050908152602001604051809103902060070160009054906101000a900460ff16151514613581576040517f08c379a000000000000000000000000000000000000000000000000000000000815260040180806020018281038252602181526020018061514f6021913960400191505060405180910390fd5b60784201600a856040518082805190602001908083835b602083106135bb5780518252602082019150602081019050602083039250613598565b6001836020036101000a038019825116818451168082178552505050505050905001915050908152602001604051809103902060080181905550600a846040518082805190602001908083835b6020831061362b5780518252602082019150602081019050602083039250613608565b6001836020036101000a0380198251168184511680821785525050505050509050019150509081526020016040518091039020600801546009856040518082805190602001908083835b602083106136985780518252602082019150602081019050602083039250613675565b6001836020036101000a0380198251168184511680821785525050505050509050019150509081526020016040518091039020846040518082805190602001908083835b602083106136ff57805182526020820191506020810190506020830392506136dc565b6001836020036101000a038019825116818451168082178552505050505050905001915050908152602001604051809103902081905550826008856040518082805190602001908083835b6020831061376d578051825260208201915060208101905060208303925061374a565b6001836020036101000a038019825116818451168082178552505050505050905001915050908152602001604051809103902090805190602001906137b3929190614f60565b507f80cb6ddff94379138f2950f686a962b33d3c134123c76298b558a221fb7892ba8484600160405180806020018060200184151515158152602001838103835286818151815260200191508051906020019080838360005b8381101561382757808201518184015260208101905061380c565b50505050905090810190601f1680156138545780820380516001836020036101000a031916815260200191505b50838103825285818151815260200191508051906020019080838360005b8381101561388d578082015181840152602081019050613872565b50505050905090810190601f1680156138ba5780820380516001836020036101000a031916815260200191505b509550505050505060405180910390a16001600a856040518082805190602001908083835b6020831061390257805182526020820191506020810190506020830392506138df565b6001836020036101000a038019825116818451168082178552505050505050905001915050908152602001604051809103902060070160006101000a81548160ff021916908315150217905590509392505050565b60606006828154811061396657fe5b906000526020600020018054600181600116156101000203166002900480601f016020809104026020016040519081016040528092919081815260200182805460018160011615610100020316600290048015613a045780601f106139d957610100808354040283529160200191613a04565b820191906000526020600020905b8154815290600101906020018083116139e757829003601f168201915b50505050509050919050565b6000600160008473ffffffffffffffffffffffffffffffffffffffff1673ffffffffffffffffffffffffffffffffffffffff16815260200190815260200160002060008373ffffffffffffffffffffffffffffffffffffffff1673ffffffffffffffffffffffffffffffffffffffff16815260200190815260200160002054905092915050565b613ba26008846040518082805190602001908083835b60208310613ad05780518252602082019150602081019050602083039250613aad565b6001836020036101000a03801982511681845116808217855250505050505090500191505090815260200160405180910390208054600181600116156101000203166002900480601f016020809104026020016040519081016040528092919081815260200182805460018160011615610100020316600290048015613b975780601f10613b6c57610100808354040283529160200191613b97565b820191906000526020600020905b815481529060010190602001808311613b7a57829003601f168201915b505050505083614a66565b613bf7576040517f08c379a00000000000000000000000000000000000000000000000000000000081526004018080602001828103825260418152602001806151706041913960600191505060405180910390fd5b426009846040518082805190602001908083835b60208310613c2e5780518252602082019150602081019050602083039250613c0b565b6001836020036101000a0380198251168184511680821785525050505050509050019150509081526020016040518091039020836040518082805190602001908083835b60208310613c955780518252602082019150602081019050602083039250613c72565b6001836020036101000a0380198251168184511680821785525050505050509050019150509081526020016040518091039020541115613e9657600d826040518082805190602001908083835b60208310613d055780518252602082019150602081019050602083039250613ce2565b6001836020036101000a0380198251168184511680821785525050505050509050019150509081526020016040518091039020600081548092919060010191905055506008836040518082805190602001908083835b60208310613d7e5780518252602082019150602081019050602083039250613d5b565b6001836020036101000a03801982511681845116808217855250505050505090500191505090815260200160405180910390206000613dbd9190615037565b6009836040518082805190602001908083835b60208310613df35780518252602082019150602081019050602083039250613dd0565b6001836020036101000a0380198251168184511680821785525050505050509050019150509081526020016040518091039020826040518082805190602001908083835b60208310613e5a5780518252602082019150602081019050602083039250613e37565b6001836020036101000a038019825116818451168082178552505050505050905001915050908152602001604051809103902060009055613ea2565b613ea1838383614a81565b5b505050565b613f608260068381548110613eb857fe5b906000526020600020018054600181600116156101000203166002900480601f016020809104026020016040519081016040528092919081815260200182805460018160011615610100020316600290048015613f565780601f10613f2b57610100808354040283529160200191613f56565b820191906000526020600020905b815481529060010190602001808311613f3957829003601f168201915b5050505050614a66565b15613fe557600660016006805490500381548110613f7a57fe5b9060005260206000200160068281548110613f9157fe5b906000526020600020019080546001816001161561010002031660029004613fba92919061507f565b506006805480613fc657fe5b600190038181906000526020600020016000613fe29190615037565b90555b7f99e8530a350e2c0cf898a9351fc1993d12c6bf7e76c950ea10ad25d0077bf2f4826001604051808060200183151515158152602001828103825284818151815260200191508051906020019080838360005b83811015614053578082015181840152602081019050614038565b50505050905090810190601f1680156140805780820380516001836020036101000a031916815260200191505b50935050505060405180910390a15050565b60008060068054905014156140aa57600090506141bb565b6141b882600a846040518082805190602001908083835b602083106140e457805182526020820191506020810190506020830392506140c1565b6001836020036101000a03801982511681845116808217855250505050505090500191505090815260200160405180910390206000018054600181600116156101000203166002900480601f0160208091040260200160405190810160405280929190818152602001828054600181600116156101000203166002900480156141ae5780601f10614183576101008083540402835291602001916141ae565b820191906000526020600020905b81548152906001019060200180831161419157829003601f168201915b5050505050614a66565b90505b919050565b6000600a826040518082805190602001908083835b602083106141f857805182526020820191506020810190506020830392506141d5565b6001836020036101000a038019825116818451168082178552505050505050905001915050908152602001604051809103902060010160009054906101000a900473ffffffffffffffffffffffffffffffffffffffff1673ffffffffffffffffffffffffffffffffffffffff168373ffffffffffffffffffffffffffffffffffffffff16148061433f5750600b826040518082805190602001908083835b602083106142b95780518252602082019150602081019050602083039250614296565b6001836020036101000a038019825116818451168082178552505050505050905001915050908152602001604051809103902060010160009054906101000a900473ffffffffffffffffffffffffffffffffffffffff1673ffffffffffffffffffffffffffffffffffffffff168373ffffffffffffffffffffffffffffffffffffffff16145b905092915050565b600033905090565b600073ffffffffffffffffffffffffffffffffffffffff168373ffffffffffffffffffffffffffffffffffffffff1614156143d5576040517f08c379a00000000000000000000000000000000000000000000000000000000081526004018080602001828103825260248152602001806153646024913960400191505060405180910390fd5b600073ffffffffffffffffffffffffffffffffffffffff168273ffffffffffffffffffffffffffffffffffffffff16141561445b576040517f08c379a00000000000000000000000000000000000000000000000000000000081526004018080602001828103825260228152602001806151d66022913960400191505060405180910390fd5b80600160008573ffffffffffffffffffffffffffffffffffffffff1673ffffffffffffffffffffffffffffffffffffffff16815260200190815260200160002060008473ffffffffffffffffffffffffffffffffffffffff1673ffffffffffffffffffffffffffffffffffffffff168152602001908152602001600020819055508173ffffffffffffffffffffffffffffffffffffffff168373ffffffffffffffffffffffffffffffffffffffff167f8c5be1e5ebec7d5bd14f71427d1e84f3dd0314c0f7b2291e5b200ac8c7c3b925836040518082815260200191505060405180910390a3505050565b600073ffffffffffffffffffffffffffffffffffffffff168373ffffffffffffffffffffffffffffffffffffffff1614156145cc576040517f08c379a000000000000000000000000000000000000000000000000000000000815260040180806020018281038252602581526020018061533f6025913960400191505060405180910390fd5b600073ffffffffffffffffffffffffffffffffffffffff168273ffffffffffffffffffffffffffffffffffffffff161415614652576040517f08c379a000000000000000000000000000000000000000000000000000000000815260040180806020018281038252602381526020018061512c6023913960400191505060405180910390fd5b61465d838383614edc565b6146c881604051806060016040528060268152602001615222602691396000808773ffffffffffffffffffffffffffffffffffffffff1673ffffffffffffffffffffffffffffffffffffffff168152602001908152602001600020546148079092919063ffffffff16565b6000808573ffffffffffffffffffffffffffffffffffffffff1673ffffffffffffffffffffffffffffffffffffffff1681526020019081526020016000208190555061475b816000808573ffffffffffffffffffffffffffffffffffffffff1673ffffffffffffffffffffffffffffffffffffffff168152602001908152602001600020546148c790919063ffffffff16565b6000808473ffffffffffffffffffffffffffffffffffffffff1673ffffffffffffffffffffffffffffffffffffffff168152602001908152602001600020819055508173ffffffffffffffffffffffffffffffffffffffff168373ffffffffffffffffffffffffffffffffffffffff167fddf252ad1be2c89b69c2b068fc378daa952ba7f163c4a11628f55a4df523b3ef836040518082815260200191505060405180910390a3505050565b60008383111582906148b4576040517f08c379a00000000000000000000000000000000000000000000000000000000081526004018080602001828103825283818151815260200191508051906020019080838360005b8381101561487957808201518184015260208101905061485e565b50505050905090810190601f1680156148a65780820380516001836020036101000a031916815260200191505b509250505060405180910390fd5b5060008385039050809150509392505050565b600080828401905083811015614945576040517f08c379a000000000000000000000000000000000000000000000000000000000815260040180806020018281038252601b8152602001807f536166654d6174683a206164646974696f6e206f766572666c6f77000000000081525060200191505060405180910390fd5b8091505092915050565b6000614a5f82600b846040518082805190602001908083835b6020831061498b5780518252602082019150602081019050602083039250614968565b6001836020036101000a03801982511681845116808217855250505050505090500191505090815260200160405180910390206000018054600181600116156101000203166002900480601f016020809104026020016040519081016040528092919081815260200182805460018160011615610100020316600290048015614a555780601f10614a2a57610100808354040283529160200191614a55565b820191906000526020600020905b815481529060010190602001808311614a3857829003601f168201915b5050505050614a66565b9050919050565b60008180519060200120838051906020012014905092915050565b82600a816040518082805190602001908083835b60208310614ab85780518252602082019150602081019050602083039250614a95565b6001836020036101000a038019825116818451168082178552505050505050905001915050908152602001604051809103902060080154421115614b47576040517f08c379a000000000000000000000000000000000000000000000000000000000815260040180806020018281038252603681526020018061529d6036913960400191505060405180910390fd5b6000614b51611d4b565b60ff16600a0a600a866040518082805190602001908083835b60208310614b8d5780518252602082019150602081019050602083039250614b6a565b6001836020036101000a038019825116818451168082178552505050505050905001915050908152602001604051809103902060060154029050614bf4600760009054906101000a900473ffffffffffffffffffffffffffffffffffffffff168483614546565b600c846040518082805190602001908083835b60208310614c2a5780518252602082019150602081019050602083039250614c07565b6001836020036101000a0380198251168184511680821785525050505050509050019150509081526020016040518091039020600081548092919060010191905055506008856040518082805190602001908083835b60208310614ca35780518252602082019150602081019050602083039250614c80565b6001836020036101000a03801982511681845116808217855250505050505090500191505090815260200160405180910390206000614ce29190615037565b6009856040518082805190602001908083835b60208310614d185780518252602082019150602081019050602083039250614cf5565b6001836020036101000a0380198251168184511680821785525050505050509050019150509081526020016040518091039020846040518082805190602001908083835b60208310614d7f5780518252602082019150602081019050602083039250614d5c565b6001836020036101000a038019825116818451168082178552505050505050905001915050908152602001604051809103902060009055600a856040518082805190602001908083835b60208310614dec5780518252602082019150602081019050602083039250614dc9565b6001836020036101000a038019825116818451168082178552505050505050905001915050908152602001604051809103902060008082016000614e309190615037565b6001820160006101000a81549073ffffffffffffffffffffffffffffffffffffffff0219169055600282016000614e679190615037565b6003820160009055600482016000614e7f9190615037565b6005820160006101000a81549060ff021916905560068201600090556007820160006101000a81549060ff02191690556007820160016101000a81549060ff02191690556008820160009055600982016000905550505050505050565b505050565b60405180610160016040528060608152602001600073ffffffffffffffffffffffffffffffffffffffff1681526020016060815260200160008152602001606081526020016000151581526020016000815260200160001515815260200160006006811115614f4c57fe5b815260200160008152602001600081525090565b828054600181600116156101000203166002900490600052602060002090601f016020900481019282601f10614fa157805160ff1916838001178555614fcf565b82800160010185558215614fcf579182015b82811115614fce578251825591602001919060010190614fb3565b5b509050614fdc9190615106565b5090565b6040518060c0016040528060608152602001600073ffffffffffffffffffffffffffffffffffffffff16815260200160008152602001606081526020016000600681111561502a57fe5b8152602001600081525090565b50805460018160011615610100020316600290046000825580601f1061505d575061507c565b601f01602090049060005260206000209081019061507b9190615106565b5b50565b828054600181600116156101000203166002900490600052602060002090601f016020900481019282601f106150b857805485556150f5565b828001600101855582156150f557600052602060002091601f016020900482015b828111156150f45782548255916001019190600101906150d9565b5b5090506151029190615106565b5090565b61512891905b8082111561512457600081600090555060010161510c565b5090565b9056fe45524332303a207472616e7366657220746f20746865207a65726f2061646472657373436861726974792068617320616c7265616479206265656e2073656c656374656452657175657374206973206e6f742073656c656374656420627920436f6e74726163746f722070726f76696465643a204d61726b656420494e434f4d504c45544543617465676f7269657320646f206e6f74206d6174636820617070726f7072696174656c7945524332303a20617070726f766520746f20746865207a65726f20616464726573734e6f20696e666f726d6174696f6e206c697374656420666f72205365617263682070726f76696465642145524332303a207472616e7366657220616d6f756e7420657863656564732062616c616e6365436f6e74726163746f72207469746c6520646f6573206e6f74206d6174636820416464726573732070726f7669646564214368617269747920726571756573746564206973206e6f742077697468696e206c69737454696d6520746f20636f6d706c65746520726571756573742069732075702e20546f6b656e207265776172642072657665727465642157696c6c206e6f7420616c6c6f77206475706c69636174652043686172697469657345524332303a207472616e7366657220616d6f756e74206578636565647320616c6c6f77616e636557696c6c206e6f7420616c6c6f77206475706c696361746520537570706c6965727345524332303a207472616e736665722066726f6d20746865207a65726f206164647265737345524332303a20617070726f76652066726f6d20746865207a65726f206164647265737345524332303a2064656372656173656420616c6c6f77616e63652062656c6f77207a65726fa264697066735822122025ef3671f5e9bc448d95bc805039b206f61f11e11760914f4d527a603d0c22ef64736f6c63430006070033",
  "immutableReferences": {},
  "source": "pragma solidity 0.6.7;\n\n//import \"https://github.com/OpenZeppelin/openzeppelin-contracts/blob/master/contracts/token/ERC20/ERC20.sol\";\n\n//import \"github/OpenZeppelin/openzeppelin-contracts/contracts/token/ERC20/ERC20.sol\";\n\nimport \"@openzeppelin/contracts/token/ERC20/ERC20.sol\";\n\ncontract RequestChain is ERC20 {\n    enum Category {\n        Food,\n        Clothing,\n        Furniture,\n        Education,\n        Transportation,\n        Medical,\n        Funding\n    }\n\n    struct Charity {\n        string charityName;\n        address ID;\n        string request;\n        uint256 members;\n        string primaryContact;\n        bool urgent;\n        uint256 tokenReward;\n        bool isSelected;\n        Category category;\n        uint256 expiry;\n        uint256 entryTime;\n    }\n\n    struct Supplier {\n        string supplierName;\n        address ID;\n        uint256 members;\n        string primaryContact;\n        Category category;\n        uint256 entryTime;\n    }\n\n    string[] private charityArr;\n    address private owner;\n    mapping(string => string) private char2Supp;\n    mapping(string => mapping(string => uint)) private timeLimit;\n    mapping(string => Charity) private Charities;\n    mapping(string => Supplier) private Suppliers;\n    mapping(string => uint256) private complete;\n    mapping(string => uint256) private incomplete;\n    \n    event LogNewCharity(\n        string charityName,\n        address ID,\n        string request,\n        string primaryContact,\n        bool urgent,\n        uint256 tokenReward\n    );\n    event LogNewSupplier(\n        string supplierName,\n        address ID,\n        string primaryContact\n    );\n    event LogSelectCharity(\n        string charityName,\n        string supplier,\n        bool completedSelection\n    );\n    event LogDeleteCharity(\n        string charityName,\n        bool completedDeletion\n    );\n\n    constructor() ERC20(\"Charity Token\", \"CTKN\") public {\n        // Initially assign all tokens to the contract's creator.\n        owner = msg.sender;\n        uint256 initialSupply = 1000000;\n        _mint(owner, initialSupply);\n    }\n    \n    modifier timeCheck(string memory charity) {\n        require(\n            block.timestamp <= Charities[charity].expiry,\n            \"Time to complete request is up. Token reward reverted!\"\n        );\n        _;\n    }\n    \n    function comp(string memory _a, string memory _b) internal pure returns(bool) {\n        return keccak256(bytes(_a)) == keccak256(bytes(_b));\n    }\n    \n    function getPair(string memory charity) public view returns(string memory contractor) {\n        return char2Supp[charity];\n    }\n\n    function isCharity(string memory charity) \n        internal \n        view\n        returns (bool) \n    {\n        if (charityArr.length == 0) return false;\n        return comp(charity, Charities[charity].charityName);\n    }\n\n    function isSupplier(string memory supplier)\n        internal\n        view\n        returns (bool)\n    {\n        return comp(supplier, Suppliers[supplier].supplierName);\n    }\n\n    function isAddress(address ID, string memory name) \n        internal \n        view \n        returns (bool) \n    {\n        return\n            ID == Charities[name].ID || ID == Suppliers[name].ID;\n    }\n\n    function addRequest(\n        string memory charity,\n        address ID,\n        string memory request,\n        uint256 members,\n        string memory primaryContact,\n        bool urgent,\n        Category category\n    ) public {\n        require(!isCharity(charity), \"Will not allow duplicate Charities\");\n        require(!isAddress(ID, charity), \"Will not allow duplicate IDs\");\n        Charity memory _charity = Charities[charity];\n        _charity.charityName = charity;\n        _charity.ID = ID;\n        _charity.members = members;\n        _charity.request = request;\n        _charity.primaryContact = primaryContact;\n        _charity.urgent = urgent;\n        if (urgent == true) {\n            _charity.tokenReward = 4;\n        } else {\n            _charity.tokenReward = 2;\n        }\n        _charity.category = category;\n        _charity.isSelected = false;\n        charityArr.push(charity);\n        _charity.entryTime = now;\n        emit LogNewCharity(\n            charity,\n            ID,\n            request,\n            primaryContact,\n            urgent,\n            _charity.tokenReward\n        );\n    }\n\n    function getCharity(string memory charity)\n        public\n        view\n        returns (\n            address ID,\n            uint256 members,\n            string memory primaryContact,\n            string memory request,\n            Category category,\n            uint256 tokenReward,\n            bool isSelected,\n            uint256 timestamp,\n            uint deadline\n        )\n    {\n        require(isCharity(charity), \"Charity requested is not within list\");\n        Charity memory _charity = Charities[charity];\n        return (\n            _charity.ID,\n            _charity.members,\n            _charity.primaryContact,\n            _charity.request,\n            _charity.category,\n            _charity.tokenReward,\n            now < _charity.expiry,\n            _charity.entryTime,\n            _charity.expiry\n        );\n    }\n    \n    function requestCount() public view returns(uint256) {\n        return charityArr.length;\n    }\n    \n    function getRequest(uint256 i) public view returns(string memory charity) {\n        return charityArr[i];\n    }\n\n    function addSupplier(\n        string memory supplier,\n        address ID,\n        uint256 members,\n        string memory primaryContact,\n        Category category\n    ) public {\n        require(!isSupplier(supplier), \"Will not allow duplicate Suppliers\");\n        require(!isAddress(ID, supplier), \"Will not allow duplicate IDs\");\n        Supplier memory _supplier = Suppliers[supplier];\n        _supplier.entryTime = now;\n        _supplier.supplierName = supplier;\n        _supplier.ID = ID;\n        _supplier.members = members;\n        _supplier.primaryContact = primaryContact;\n        _supplier.category = category;\n    \n        emit LogNewSupplier(\n            supplier,\n            ID,\n            primaryContact\n        );\n    }\n    \n    // needs for loop\n    function pendingRequests(string memory supplier, uint i) public view returns(\n        string memory charity,\n        bool urgency,\n        uint256 reward\n    ) {\n        if (Suppliers[supplier].category == Charities[charityArr[i]].category) {\n            return (\n                charityArr[i],\n                Charities[charityArr[i]].urgent,\n                Charities[charityArr[i]].tokenReward\n            );\n        }\n    }\n    \n    function selectCharity(\n        string memory charity,\n        string memory supplier,\n        address suppID\n    ) public returns (bool isSelected) {\n        if (now > Charities[charity].expiry) {\n            Charities[charity].isSelected = false;\n        }\n        require(\n            Suppliers[supplier].ID == suppID,\n            \"Contractor title does not match Address provided!\"\n        );\n        require(\n            Charities[charity].category == Suppliers[supplier].category,\n            \"Categories do not match appropriately\"\n        );\n        require(\n            Charities[charity].isSelected == false,\n            \"Charity has already been selected\"\n        );\n        Charities[charity].expiry = block.timestamp + 2 minutes;\n        timeLimit[charity][supplier] = Charities[charity].expiry;\n        char2Supp[charity] = supplier;\n        emit LogSelectCharity(\n            charity,\n            supplier,\n            true\n        );\n        return Charities[charity].isSelected = true;\n    }\n    \n    function delivery(\n        string memory charity,\n        string memory supplier,\n        address suppID\n    ) public {\n        require(comp(char2Supp[charity], supplier),\n            \"Request is not selected by Contractor provided: Marked INCOMPLETE\"\n        );\n        if (timeLimit[charity][supplier] > now) {\n            incomplete[supplier]++;\n            delete char2Supp[charity];\n            delete timeLimit[charity][supplier];\n        } else {\n            deliverRequest(charity, supplier, suppID);\n        }\n    }\n\n    function deliverRequest(\n        string memory charity,\n        string memory supplier,\n        address suppID\n    ) private timeCheck(charity) {\n        uint tokens = Charities[charity].tokenReward * uint256(10)**decimals();\n        _transfer(owner, suppID, tokens);\n        complete[supplier]++;\n        delete char2Supp[charity];\n        delete timeLimit[charity][supplier];\n        delete Charities[charity];\n    }\n    \n    //needs for loop\n    function popRequest(string memory charity, uint i) public {\n        if (comp(charity, charityArr[i])) {\n            charityArr[i] = charityArr[charityArr.length - 1];\n            charityArr.pop();\n        }\n        emit LogDeleteCharity(charity, true);\n    }\n    \n    function searchInfo(string memory x) public view {\n        require(isCharity(x) || isSupplier(x), \"No information listed for Search provided!\");\n        if (isCharity(x)) {\n            getCharity(x);\n        } else if (isSupplier(x)) {\n            getSupplier(x);\n        }\n    }\n    \n    function getSupplier(string memory x) public view returns(\n        address supplierID,\n        uint256 members,\n        Category category,\n        string memory primaryContact,\n        uint256 timestamp,\n        uint completedRequests,\n        uint incompletedRequests\n    ) {\n        Supplier memory _supplier = Suppliers[x];\n        return (\n            _supplier.ID,\n            _supplier.members,\n            _supplier.category,\n            _supplier.primaryContact,\n            _supplier.entryTime,\n            complete[x],\n            incomplete[x]\n        );\n    }\n}\n",
  "sourcePath": "/Users/Beth/git/charity2/contracts/RequestChain.sol",
  "compiler": {
    "name": "solc",
    "version": "0.6.7+commit.b8d736ae.Emscripten.clang"
  },
  "schemaVersion": "3.2.3",
  "updatedAt": "2020-08-18T07:02:14.572Z",
  "networkType": "ethereum",
  "devdoc": {
    "methods": {
      "allowance(address,address)": {
        "details": "See {IERC20-allowance}."
      },
      "approve(address,uint256)": {
        "details": "See {IERC20-approve}.     * Requirements:     * - `spender` cannot be the zero address."
      },
      "balanceOf(address)": {
        "details": "See {IERC20-balanceOf}."
      },
      "decimals()": {
        "details": "Returns the number of decimals used to get its user representation. For example, if `decimals` equals `2`, a balance of `505` tokens should be displayed to a user as `5,05` (`505 / 10 ** 2`).     * Tokens usually opt for a value of 18, imitating the relationship between Ether and Wei. This is the value {ERC20} uses, unless {_setupDecimals} is called.     * NOTE: This information is only used for _display_ purposes: it in no way affects any of the arithmetic of the contract, including {IERC20-balanceOf} and {IERC20-transfer}."
      },
      "decreaseAllowance(address,uint256)": {
        "details": "Atomically decreases the allowance granted to `spender` by the caller.     * This is an alternative to {approve} that can be used as a mitigation for problems described in {IERC20-approve}.     * Emits an {Approval} event indicating the updated allowance.     * Requirements:     * - `spender` cannot be the zero address. - `spender` must have allowance for the caller of at least `subtractedValue`."
      },
      "increaseAllowance(address,uint256)": {
        "details": "Atomically increases the allowance granted to `spender` by the caller.     * This is an alternative to {approve} that can be used as a mitigation for problems described in {IERC20-approve}.     * Emits an {Approval} event indicating the updated allowance.     * Requirements:     * - `spender` cannot be the zero address."
      },
      "name()": {
        "details": "Returns the name of the token."
      },
      "symbol()": {
        "details": "Returns the symbol of the token, usually a shorter version of the name."
      },
      "totalSupply()": {
        "details": "See {IERC20-totalSupply}."
      },
      "transfer(address,uint256)": {
        "details": "See {IERC20-transfer}.     * Requirements:     * - `recipient` cannot be the zero address. - the caller must have a balance of at least `amount`."
      },
      "transferFrom(address,address,uint256)": {
        "details": "See {IERC20-transferFrom}.     * Emits an {Approval} event indicating the updated allowance. This is not required by the EIP. See the note at the beginning of {ERC20};     * Requirements: - `sender` and `recipient` cannot be the zero address. - `sender` must have a balance of at least `amount`. - the caller must have allowance for ``sender``'s tokens of at least `amount`."
      }
    }
  },
  "userdoc": {
    "methods": {}
  }
}