{
  "contractName": "RequestChain",
  "abi": [
    {
      "inputs": [],
      "stateMutability": "nonpayable",
      "type": "constructor"
    },
    {
      "anonymous": false,
      "inputs": [
        {
          "indexed": true,
          "internalType": "address",
          "name": "owner",
          "type": "address"
        },
        {
          "indexed": true,
          "internalType": "address",
          "name": "spender",
          "type": "address"
        },
        {
          "indexed": false,
          "internalType": "uint256",
          "name": "value",
          "type": "uint256"
        }
      ],
      "name": "Approval",
      "type": "event"
    },
    {
      "anonymous": false,
      "inputs": [
        {
          "indexed": false,
          "internalType": "string",
          "name": "charityName",
          "type": "string"
        },
        {
          "indexed": false,
          "internalType": "bool",
          "name": "completedDeletion",
          "type": "bool"
        }
      ],
      "name": "LogDeleteCharity",
      "type": "event"
    },
    {
      "anonymous": false,
      "inputs": [
        {
          "indexed": false,
          "internalType": "string",
          "name": "charityName",
          "type": "string"
        },
        {
          "indexed": false,
          "internalType": "address",
          "name": "ID",
          "type": "address"
        },
        {
          "indexed": false,
          "internalType": "string",
          "name": "request",
          "type": "string"
        },
        {
          "indexed": false,
          "internalType": "string",
          "name": "primaryContact",
          "type": "string"
        },
        {
          "indexed": false,
          "internalType": "bool",
          "name": "urgent",
          "type": "bool"
        },
        {
          "indexed": false,
          "internalType": "uint256",
          "name": "tokenReward",
          "type": "uint256"
        }
      ],
      "name": "LogNewCharity",
      "type": "event"
    },
    {
      "anonymous": false,
      "inputs": [
        {
          "indexed": false,
          "internalType": "string",
          "name": "supplierName",
          "type": "string"
        },
        {
          "indexed": false,
          "internalType": "address",
          "name": "ID",
          "type": "address"
        },
        {
          "indexed": false,
          "internalType": "string",
          "name": "primaryContact",
          "type": "string"
        }
      ],
      "name": "LogNewSupplier",
      "type": "event"
    },
    {
      "anonymous": false,
      "inputs": [
        {
          "indexed": false,
          "internalType": "string",
          "name": "charityName",
          "type": "string"
        },
        {
          "indexed": false,
          "internalType": "string",
          "name": "supplier",
          "type": "string"
        },
        {
          "indexed": false,
          "internalType": "bool",
          "name": "completedSelection",
          "type": "bool"
        }
      ],
      "name": "LogSelectCharity",
      "type": "event"
    },
    {
      "anonymous": false,
      "inputs": [
        {
          "indexed": true,
          "internalType": "address",
          "name": "from",
          "type": "address"
        },
        {
          "indexed": true,
          "internalType": "address",
          "name": "to",
          "type": "address"
        },
        {
          "indexed": false,
          "internalType": "uint256",
          "name": "value",
          "type": "uint256"
        }
      ],
      "name": "Transfer",
      "type": "event"
    },
    {
      "inputs": [
        {
          "internalType": "address",
          "name": "owner",
          "type": "address"
        },
        {
          "internalType": "address",
          "name": "spender",
          "type": "address"
        }
      ],
      "name": "allowance",
      "outputs": [
        {
          "internalType": "uint256",
          "name": "",
          "type": "uint256"
        }
      ],
      "stateMutability": "view",
      "type": "function"
    },
    {
      "inputs": [
        {
          "internalType": "address",
          "name": "spender",
          "type": "address"
        },
        {
          "internalType": "uint256",
          "name": "amount",
          "type": "uint256"
        }
      ],
      "name": "approve",
      "outputs": [
        {
          "internalType": "bool",
          "name": "",
          "type": "bool"
        }
      ],
      "stateMutability": "nonpayable",
      "type": "function"
    },
    {
      "inputs": [
        {
          "internalType": "address",
          "name": "account",
          "type": "address"
        }
      ],
      "name": "balanceOf",
      "outputs": [
        {
          "internalType": "uint256",
          "name": "",
          "type": "uint256"
        }
      ],
      "stateMutability": "view",
      "type": "function"
    },
    {
      "inputs": [],
      "name": "decimals",
      "outputs": [
        {
          "internalType": "uint8",
          "name": "",
          "type": "uint8"
        }
      ],
      "stateMutability": "view",
      "type": "function"
    },
    {
      "inputs": [
        {
          "internalType": "address",
          "name": "spender",
          "type": "address"
        },
        {
          "internalType": "uint256",
          "name": "subtractedValue",
          "type": "uint256"
        }
      ],
      "name": "decreaseAllowance",
      "outputs": [
        {
          "internalType": "bool",
          "name": "",
          "type": "bool"
        }
      ],
      "stateMutability": "nonpayable",
      "type": "function"
    },
    {
      "inputs": [
        {
          "internalType": "address",
          "name": "spender",
          "type": "address"
        },
        {
          "internalType": "uint256",
          "name": "addedValue",
          "type": "uint256"
        }
      ],
      "name": "increaseAllowance",
      "outputs": [
        {
          "internalType": "bool",
          "name": "",
          "type": "bool"
        }
      ],
      "stateMutability": "nonpayable",
      "type": "function"
    },
    {
      "inputs": [],
      "name": "name",
      "outputs": [
        {
          "internalType": "string",
          "name": "",
          "type": "string"
        }
      ],
      "stateMutability": "view",
      "type": "function"
    },
    {
      "inputs": [],
      "name": "symbol",
      "outputs": [
        {
          "internalType": "string",
          "name": "",
          "type": "string"
        }
      ],
      "stateMutability": "view",
      "type": "function"
    },
    {
      "inputs": [],
      "name": "totalSupply",
      "outputs": [
        {
          "internalType": "uint256",
          "name": "",
          "type": "uint256"
        }
      ],
      "stateMutability": "view",
      "type": "function"
    },
    {
      "inputs": [
        {
          "internalType": "address",
          "name": "recipient",
          "type": "address"
        },
        {
          "internalType": "uint256",
          "name": "amount",
          "type": "uint256"
        }
      ],
      "name": "transfer",
      "outputs": [
        {
          "internalType": "bool",
          "name": "",
          "type": "bool"
        }
      ],
      "stateMutability": "nonpayable",
      "type": "function"
    },
    {
      "inputs": [
        {
          "internalType": "address",
          "name": "sender",
          "type": "address"
        },
        {
          "internalType": "address",
          "name": "recipient",
          "type": "address"
        },
        {
          "internalType": "uint256",
          "name": "amount",
          "type": "uint256"
        }
      ],
      "name": "transferFrom",
      "outputs": [
        {
          "internalType": "bool",
          "name": "",
          "type": "bool"
        }
      ],
      "stateMutability": "nonpayable",
      "type": "function"
    },
    {
      "inputs": [
        {
          "internalType": "string",
          "name": "charity",
          "type": "string"
        },
        {
          "internalType": "address",
          "name": "ID",
          "type": "address"
        },
        {
          "internalType": "string",
          "name": "request",
          "type": "string"
        },
        {
          "internalType": "uint256",
          "name": "members",
          "type": "uint256"
        },
        {
          "internalType": "string",
          "name": "primaryContact",
          "type": "string"
        },
        {
          "internalType": "bool",
          "name": "urgent",
          "type": "bool"
        },
        {
          "internalType": "enum RequestChain.Category",
          "name": "category",
          "type": "uint8"
        }
      ],
      "name": "addRequest",
      "outputs": [],
      "stateMutability": "nonpayable",
      "type": "function"
    },
    {
      "inputs": [
        {
          "internalType": "string",
          "name": "charity",
          "type": "string"
        }
      ],
      "name": "getCharity",
      "outputs": [
        {
          "internalType": "address",
          "name": "ID",
          "type": "address"
        },
        {
          "internalType": "uint256",
          "name": "members",
          "type": "uint256"
        },
        {
          "internalType": "string",
          "name": "primaryContact",
          "type": "string"
        },
        {
          "internalType": "string",
          "name": "request",
          "type": "string"
        },
        {
          "internalType": "enum RequestChain.Category",
          "name": "category",
          "type": "uint8"
        },
        {
          "internalType": "uint256",
          "name": "tokenReward",
          "type": "uint256"
        },
        {
          "internalType": "bool",
          "name": "isSelected",
          "type": "bool"
        },
        {
          "internalType": "uint256",
          "name": "timestamp",
          "type": "uint256"
        },
        {
          "internalType": "uint256",
          "name": "deadline",
          "type": "uint256"
        }
      ],
      "stateMutability": "view",
      "type": "function"
    },
    {
      "inputs": [],
      "name": "requestCount",
      "outputs": [
        {
          "internalType": "uint256",
          "name": "",
          "type": "uint256"
        }
      ],
      "stateMutability": "view",
      "type": "function"
    },
    {
      "inputs": [
        {
          "internalType": "uint256",
          "name": "i",
          "type": "uint256"
        }
      ],
      "name": "getRequest",
      "outputs": [
        {
          "internalType": "string",
          "name": "charity",
          "type": "string"
        }
      ],
      "stateMutability": "view",
      "type": "function"
    },
    {
      "inputs": [
        {
          "internalType": "string",
          "name": "supplier",
          "type": "string"
        },
        {
          "internalType": "address",
          "name": "ID",
          "type": "address"
        },
        {
          "internalType": "uint256",
          "name": "members",
          "type": "uint256"
        },
        {
          "internalType": "string",
          "name": "primaryContact",
          "type": "string"
        },
        {
          "internalType": "enum RequestChain.Category",
          "name": "category",
          "type": "uint8"
        }
      ],
      "name": "addSupplier",
      "outputs": [],
      "stateMutability": "nonpayable",
      "type": "function"
    },
    {
      "inputs": [
        {
          "internalType": "string",
          "name": "supplier",
          "type": "string"
        },
        {
          "internalType": "uint256",
          "name": "i",
          "type": "uint256"
        }
      ],
      "name": "pendingRequests",
      "outputs": [
        {
          "internalType": "string",
          "name": "charity",
          "type": "string"
        },
        {
          "internalType": "bool",
          "name": "urgency",
          "type": "bool"
        },
        {
          "internalType": "uint256",
          "name": "reward",
          "type": "uint256"
        }
      ],
      "stateMutability": "view",
      "type": "function"
    },
    {
      "inputs": [
        {
          "internalType": "string",
          "name": "charity",
          "type": "string"
        },
        {
          "internalType": "string",
          "name": "supplier",
          "type": "string"
        },
        {
          "internalType": "address",
          "name": "suppID",
          "type": "address"
        }
      ],
      "name": "selectCharity",
      "outputs": [
        {
          "internalType": "bool",
          "name": "isSelected",
          "type": "bool"
        }
      ],
      "stateMutability": "nonpayable",
      "type": "function"
    },
    {
      "inputs": [
        {
          "internalType": "string",
          "name": "charity",
          "type": "string"
        },
        {
          "internalType": "string",
          "name": "supplier",
          "type": "string"
        },
        {
          "internalType": "address",
          "name": "suppID",
          "type": "address"
        }
      ],
      "name": "delivery",
      "outputs": [],
      "stateMutability": "nonpayable",
      "type": "function"
    },
    {
      "inputs": [
        {
          "internalType": "string",
          "name": "charity",
          "type": "string"
        },
        {
          "internalType": "uint256",
          "name": "i",
          "type": "uint256"
        }
      ],
      "name": "popRequest",
      "outputs": [],
      "stateMutability": "nonpayable",
      "type": "function"
    },
    {
      "inputs": [
        {
          "internalType": "string",
          "name": "x",
          "type": "string"
        }
      ],
      "name": "searchInfo",
      "outputs": [],
      "stateMutability": "view",
      "type": "function"
    },
    {
      "inputs": [
        {
          "internalType": "string",
          "name": "x",
          "type": "string"
        }
      ],
      "name": "getSupplier",
      "outputs": [
        {
          "internalType": "address",
          "name": "supplierID",
          "type": "address"
        },
        {
          "internalType": "uint256",
          "name": "members",
          "type": "uint256"
        },
        {
          "internalType": "enum RequestChain.Category",
          "name": "category",
          "type": "uint8"
        },
        {
          "internalType": "string",
          "name": "primaryContact",
          "type": "string"
        },
        {
          "internalType": "uint256",
          "name": "timestamp",
          "type": "uint256"
        },
        {
          "internalType": "uint256",
          "name": "completedRequests",
          "type": "uint256"
        },
        {
          "internalType": "uint256",
          "name": "incompletedRequests",
          "type": "uint256"
        }
      ],
      "stateMutability": "view",
      "type": "function"
    }
  ],
  "bytecode": "0x60806040523480156200001157600080fd5b506040518060400160405280600d81526020017f4368617269747920546f6b656e000000000000000000000000000000000000008152506040518060400160405280600481526020017f43544b4e00000000000000000000000000000000000000000000000000000000815250816003908051906020019062000096929190620003be565b508060049080519060200190620000af929190620003be565b506012600560006101000a81548160ff021916908360ff160217905550505033600760006101000a81548173ffffffffffffffffffffffffffffffffffffffff021916908373ffffffffffffffffffffffffffffffffffffffff1602179055506000620f424090506200014b600760009054906101000a900473ffffffffffffffffffffffffffffffffffffffff16826200015260201b60201c565b506200046d565b600073ffffffffffffffffffffffffffffffffffffffff168273ffffffffffffffffffffffffffffffffffffffff161415620001f6576040517f08c379a000000000000000000000000000000000000000000000000000000000815260040180806020018281038252601f8152602001807f45524332303a206d696e7420746f20746865207a65726f20616464726573730081525060200191505060405180910390fd5b6200020a600083836200033060201b60201c565b62000226816002546200033560201b6200467d1790919060201c565b60028190555062000284816000808573ffffffffffffffffffffffffffffffffffffffff1673ffffffffffffffffffffffffffffffffffffffff168152602001908152602001600020546200033560201b6200467d1790919060201c565b6000808473ffffffffffffffffffffffffffffffffffffffff1673ffffffffffffffffffffffffffffffffffffffff168152602001908152602001600020819055508173ffffffffffffffffffffffffffffffffffffffff16600073ffffffffffffffffffffffffffffffffffffffff167fddf252ad1be2c89b69c2b068fc378daa952ba7f163c4a11628f55a4df523b3ef836040518082815260200191505060405180910390a35050565b505050565b600080828401905083811015620003b4576040517f08c379a000000000000000000000000000000000000000000000000000000000815260040180806020018281038252601b8152602001807f536166654d6174683a206164646974696f6e206f766572666c6f77000000000081525060200191505060405180910390fd5b8091505092915050565b828054600181600116156101000203166002900490600052602060002090601f016020900481019282601f106200040157805160ff191683800117855562000432565b8280016001018555821562000432579182015b828111156200043157825182559160200191906001019062000414565b5b50905062000441919062000445565b5090565b6200046a91905b80821115620004665760008160009055506001016200044c565b5090565b90565b615198806200047d6000396000f3fe608060405234801561001057600080fd5b50600436106101425760003560e01c806390b5bf04116100b8578063a9059cbb1161007c578063a9059cbb14610e24578063c042825914610e8a578063c58343ef14611014578063dd62ed3e146110bb578063f449a7b914611133578063f9919bde146112a557610142565b806390b5bf04146109985780639548369614610a5357806395d89b4114610ba357806398ad064214610c26578063a457c2d714610dbe57610142565b8063313ce5671161010a578063313ce5671461050057806339509351146105245780635badbe4c1461058a5780636ddb233d146105a857806370a08231146107315780638ad95d0e1461078957610142565b806306fdde03146101475780630781dd6c146101ca578063095ea7b3146103f657806318160ddd1461045c57806323b872dd1461047a575b600080fd5b61014f61136a565b6040518080602001828103825283818151815260200191508051906020019080838360005b8381101561018f578082015181840152602081019050610174565b50505050905090810190601f1680156101bc5780820380516001836020036101000a031916815260200191505b509250505060405180910390f35b6103f4600480360360e08110156101e057600080fd5b81019080803590602001906401000000008111156101fd57600080fd5b82018360208201111561020f57600080fd5b8035906020019184600183028401116401000000008311171561023157600080fd5b91908080601f016020809104026020016040519081016040528093929190818152602001838380828437600081840152601f19601f820116905080830192505050505050509192919290803573ffffffffffffffffffffffffffffffffffffffff169060200190929190803590602001906401000000008111156102b457600080fd5b8201836020820111156102c657600080fd5b803590602001918460018302840111640100000000831117156102e857600080fd5b91908080601f016020809104026020016040519081016040528093929190818152602001838380828437600081840152601f19601f820116905080830192505050505050509192919290803590602001909291908035906020019064010000000081111561035557600080fd5b82018360208201111561036757600080fd5b8035906020019184600183028401116401000000008311171561038957600080fd5b91908080601f016020809104026020016040519081016040528093929190818152602001838380828437600081840152601f19601f820116905080830192505050505050509192919290803515159060200190929190803560ff16906020019092919050505061140c565b005b6104426004803603604081101561040c57600080fd5b81019080803573ffffffffffffffffffffffffffffffffffffffff16906020019092919080359060200190929190505050611b0b565b604051808215151515815260200191505060405180910390f35b610464611b29565b6040518082815260200191505060405180910390f35b6104e66004803603606081101561049057600080fd5b81019080803573ffffffffffffffffffffffffffffffffffffffff169060200190929190803573ffffffffffffffffffffffffffffffffffffffff16906020019092919080359060200190929190505050611b33565b604051808215151515815260200191505060405180910390f35b610508611c0c565b604051808260ff1660ff16815260200191505060405180910390f35b6105706004803603604081101561053a57600080fd5b81019080803573ffffffffffffffffffffffffffffffffffffffff16906020019092919080359060200190929190505050611c23565b604051808215151515815260200191505060405180910390f35b610592611cd6565b6040518082815260200191505060405180910390f35b61072f600480360360a08110156105be57600080fd5b81019080803590602001906401000000008111156105db57600080fd5b8201836020820111156105ed57600080fd5b8035906020019184600183028401116401000000008311171561060f57600080fd5b91908080601f016020809104026020016040519081016040528093929190818152602001838380828437600081840152601f19601f820116905080830192505050505050509192919290803573ffffffffffffffffffffffffffffffffffffffff169060200190929190803590602001909291908035906020019064010000000081111561069c57600080fd5b8201836020820111156106ae57600080fd5b803590602001918460018302840111640100000000831117156106d057600080fd5b91908080601f016020809104026020016040519081016040528093929190818152602001838380828437600081840152601f19601f820116905080830192505050505050509192919290803560ff169060200190929190505050611ce3565b005b6107736004803603602081101561074757600080fd5b81019080803573ffffffffffffffffffffffffffffffffffffffff1690602001909291905050506121dd565b6040518082815260200191505060405180910390f35b6108426004803603602081101561079f57600080fd5b81019080803590602001906401000000008111156107bc57600080fd5b8201836020820111156107ce57600080fd5b803590602001918460018302840111640100000000831117156107f057600080fd5b91908080601f016020809104026020016040519081016040528093929190818152602001838380828437600081840152601f19601f820116905080830192505050505050509192919290505050612225565b604051808a73ffffffffffffffffffffffffffffffffffffffff1673ffffffffffffffffffffffffffffffffffffffff168152602001898152602001806020018060200188600681111561089257fe5b60ff1681526020018781526020018615151515815260200185815260200184815260200183810383528a818151815260200191508051906020019080838360005b838110156108ee5780820151818401526020810190506108d3565b50505050905090810190601f16801561091b5780820380516001836020036101000a031916815260200191505b50838103825289818151815260200191508051906020019080838360005b83811015610954578082015181840152602081019050610939565b50505050905090810190601f1680156109815780820380516001836020036101000a031916815260200191505b509b50505050505050505050505060405180910390f35b610a51600480360360208110156109ae57600080fd5b81019080803590602001906401000000008111156109cb57600080fd5b8201836020820111156109dd57600080fd5b803590602001918460018302840111640100000000831117156109ff57600080fd5b91908080601f016020809104026020016040519081016040528093929190818152602001838380828437600081840152601f19601f82011690508083019250505050505050919291929050505061262a565b005b610b1660048036036040811015610a6957600080fd5b8101908080359060200190640100000000811115610a8657600080fd5b820183602082011115610a9857600080fd5b80359060200191846001830284011164010000000083111715610aba57600080fd5b91908080601f016020809104026020016040519081016040528093929190818152602001838380828437600081840152601f19601f820116905080830192505050505050509192919290803590602001909291905050506126e0565b604051808060200184151515158152602001838152602001828103825285818151815260200191508051906020019080838360005b83811015610b66578082015181840152602081019050610b4b565b50505050905090810190601f168015610b935780820380516001836020036101000a031916815260200191505b5094505050505060405180910390f35b610bab6129fc565b6040518080602001828103825283818151815260200191508051906020019080838360005b83811015610beb578082015181840152602081019050610bd0565b50505050905090810190601f168015610c185780820380516001836020036101000a031916815260200191505b509250505060405180910390f35b610cdf60048036036020811015610c3c57600080fd5b8101908080359060200190640100000000811115610c5957600080fd5b820183602082011115610c6b57600080fd5b80359060200191846001830284011164010000000083111715610c8d57600080fd5b91908080601f016020809104026020016040519081016040528093929190818152602001838380828437600081840152601f19601f820116905080830192505050505050509192919290505050612a9e565b604051808873ffffffffffffffffffffffffffffffffffffffff1673ffffffffffffffffffffffffffffffffffffffff168152602001878152602001866006811115610d2757fe5b60ff16815260200180602001858152602001848152602001838152602001828103825286818151815260200191508051906020019080838360005b83811015610d7d578082015181840152602081019050610d62565b50505050905090810190601f168015610daa5780820380516001836020036101000a031916815260200191505b509850505050505050505060405180910390f35b610e0a60048036036040811015610dd457600080fd5b81019080803573ffffffffffffffffffffffffffffffffffffffff16906020019092919080359060200190929190505050612e0a565b604051808215151515815260200191505060405180910390f35b610e7060048036036040811015610e3a57600080fd5b81019080803573ffffffffffffffffffffffffffffffffffffffff16906020019092919080359060200190929190505050612ed7565b604051808215151515815260200191505060405180910390f35b610ffa60048036036060811015610ea057600080fd5b8101908080359060200190640100000000811115610ebd57600080fd5b820183602082011115610ecf57600080fd5b80359060200191846001830284011164010000000083111715610ef157600080fd5b91908080601f016020809104026020016040519081016040528093929190818152602001838380828437600081840152601f19601f82011690508083019250505050505050919291929080359060200190640100000000811115610f5457600080fd5b820183602082011115610f6657600080fd5b80359060200191846001830284011164010000000083111715610f8857600080fd5b91908080601f016020809104026020016040519081016040528093929190818152602001838380828437600081840152601f19601f820116905080830192505050505050509192919290803573ffffffffffffffffffffffffffffffffffffffff169060200190929190505050612ef5565b604051808215151515815260200191505060405180910390f35b6110406004803603602081101561102a57600080fd5b810190808035906020019092919050505061370d565b6040518080602001828103825283818151815260200191508051906020019080838360005b83811015611080578082015181840152602081019050611065565b50505050905090810190601f1680156110ad5780820380516001836020036101000a031916815260200191505b509250505060405180910390f35b61111d600480360360408110156110d157600080fd5b81019080803573ffffffffffffffffffffffffffffffffffffffff169060200190929190803573ffffffffffffffffffffffffffffffffffffffff1690602001909291905050506137c6565b6040518082815260200191505060405180910390f35b6112a36004803603606081101561114957600080fd5b810190808035906020019064010000000081111561116657600080fd5b82018360208201111561117857600080fd5b8035906020019184600183028401116401000000008311171561119a57600080fd5b91908080601f016020809104026020016040519081016040528093929190818152602001838380828437600081840152601f19601f820116905080830192505050505050509192919290803590602001906401000000008111156111fd57600080fd5b82018360208201111561120f57600080fd5b8035906020019184600183028401116401000000008311171561123157600080fd5b91908080601f016020809104026020016040519081016040528093929190818152602001838380828437600081840152601f19601f820116905080830192505050505050509192919290803573ffffffffffffffffffffffffffffffffffffffff16906020019092919050505061384d565b005b611368600480360360408110156112bb57600080fd5b81019080803590602001906401000000008111156112d857600080fd5b8201836020820111156112ea57600080fd5b8035906020019184600183028401116401000000008311171561130c57600080fd5b91908080601f016020809104026020016040519081016040528093929190818152602001838380828437600081840152601f19601f82011690508083019250505050505050919291929080359060200190929190505050613c5d565b005b606060038054600181600116156101000203166002900480601f0160208091040260200160405190810160405280929190818152602001828054600181600116156101000203166002900480156114025780601f106113d757610100808354040283529160200191611402565b820191906000526020600020905b8154815290600101906020018083116113e557829003601f168201915b5050505050905090565b61141587613e48565b1561146b576040517f08c379a00000000000000000000000000000000000000000000000000000000081526004018080602001828103825260228152602001806150896022913960400191505060405180910390fd5b6114758688613f76565b156114e8576040517f08c379a000000000000000000000000000000000000000000000000000000000815260040180806020018281038252601c8152602001807f57696c6c206e6f7420616c6c6f77206475706c6963617465204944730000000081525060200191505060405180910390fd5b6114f0614c97565b600a886040518082805190602001908083835b602083106115265780518252602082019150602081019050602083039250611503565b6001836020036101000a038019825116818451168082178552505050505050905001915050908152602001604051809103902060405180610160016040529081600082018054600181600116156101000203166002900480601f0160208091040260200160405190810160405280929190818152602001828054600181600116156101000203166002900480156115fe5780601f106115d3576101008083540402835291602001916115fe565b820191906000526020600020905b8154815290600101906020018083116115e157829003601f168201915b505050505081526020016001820160009054906101000a900473ffffffffffffffffffffffffffffffffffffffff1673ffffffffffffffffffffffffffffffffffffffff1673ffffffffffffffffffffffffffffffffffffffff168152602001600282018054600181600116156101000203166002900480601f0160208091040260200160405190810160405280929190818152602001828054600181600116156101000203166002900480156116f65780601f106116cb576101008083540402835291602001916116f6565b820191906000526020600020905b8154815290600101906020018083116116d957829003601f168201915b5050505050815260200160038201548152602001600482018054600181600116156101000203166002900480601f0160208091040260200160405190810160405280929190818152602001828054600181600116156101000203166002900480156117a25780601f10611777576101008083540402835291602001916117a2565b820191906000526020600020905b81548152906001019060200180831161178557829003601f168201915b505050505081526020016005820160009054906101000a900460ff16151515158152602001600682015481526020016007820160009054906101000a900460ff161515151581526020016007820160019054906101000a900460ff16600681111561180957fe5b600681111561181457fe5b815260200160088201548152602001600982015481525050905087816000018190525086816020019073ffffffffffffffffffffffffffffffffffffffff16908173ffffffffffffffffffffffffffffffffffffffff168152505084816060018181525050858160400181905250838160800181905250828160a00190151590811515815250506001151583151514156118b85760048160c00181815250506118c4565b60028160c00181815250505b8181610100019060068111156118d657fe5b908160068111156118e357fe5b8152505060008160e0019015159081151581525050600688908060018154018082558091505060019003906000526020600020016000909190919091509080519060200190611933929190614d16565b5042816101400181815250507f420d512cd591b3f748d9dc5db9798cc497f2356b35cbec3f9233be8b88b5adf088888887878660c0015160405180806020018773ffffffffffffffffffffffffffffffffffffffff1673ffffffffffffffffffffffffffffffffffffffff16815260200180602001806020018615151515815260200185815260200184810384528a818151815260200191508051906020019080838360005b838110156119f45780820151818401526020810190506119d9565b50505050905090810190601f168015611a215780820380516001836020036101000a031916815260200191505b50848103835288818151815260200191508051906020019080838360005b83811015611a5a578082015181840152602081019050611a3f565b50505050905090810190601f168015611a875780820380516001836020036101000a031916815260200191505b50848103825287818151815260200191508051906020019080838360005b83811015611ac0578082015181840152602081019050611aa5565b50505050905090810190601f168015611aed5780820380516001836020036101000a031916815260200191505b50995050505050505050505060405180910390a15050505050505050565b6000611b1f611b186140fd565b8484614105565b6001905092915050565b6000600254905090565b6000611b408484846142fc565b611c0184611b4c6140fd565b611bfc856040518060600160405280602881526020016150ab60289139600160008b73ffffffffffffffffffffffffffffffffffffffff1673ffffffffffffffffffffffffffffffffffffffff1681526020019081526020016000206000611bb26140fd565b73ffffffffffffffffffffffffffffffffffffffff1673ffffffffffffffffffffffffffffffffffffffff168152602001908152602001600020546145bd9092919063ffffffff16565b614105565b600190509392505050565b6000600560009054906101000a900460ff16905090565b6000611ccc611c306140fd565b84611cc78560016000611c416140fd565b73ffffffffffffffffffffffffffffffffffffffff1673ffffffffffffffffffffffffffffffffffffffff16815260200190815260200160002060008973ffffffffffffffffffffffffffffffffffffffff1673ffffffffffffffffffffffffffffffffffffffff1681526020019081526020016000205461467d90919063ffffffff16565b614105565b6001905092915050565b6000600680549050905090565b611cec85614705565b15611d42576040517f08c379a00000000000000000000000000000000000000000000000000000000081526004018080602001828103825260228152602001806150d36022913960400191505060405180910390fd5b611d4c8486613f76565b15611dbf576040517f08c379a000000000000000000000000000000000000000000000000000000000815260040180806020018281038252601c8152602001807f57696c6c206e6f7420616c6c6f77206475706c6963617465204944730000000081525060200191505060405180910390fd5b611dc7614d96565b600b866040518082805190602001908083835b60208310611dfd5780518252602082019150602081019050602083039250611dda565b6001836020036101000a03801982511681845116808217855250505050505090500191505090815260200160405180910390206040518060c0016040529081600082018054600181600116156101000203166002900480601f016020809104026020016040519081016040528092919081815260200182805460018160011615610100020316600290048015611ed45780601f10611ea957610100808354040283529160200191611ed4565b820191906000526020600020905b815481529060010190602001808311611eb757829003601f168201915b505050505081526020016001820160009054906101000a900473ffffffffffffffffffffffffffffffffffffffff1673ffffffffffffffffffffffffffffffffffffffff1673ffffffffffffffffffffffffffffffffffffffff16815260200160028201548152602001600382018054600181600116156101000203166002900480601f016020809104026020016040519081016040528092919081815260200182805460018160011615610100020316600290048015611fd65780601f10611fab57610100808354040283529160200191611fd6565b820191906000526020600020905b815481529060010190602001808311611fb957829003601f168201915b505050505081526020016004820160009054906101000a900460ff166006811115611ffd57fe5b600681111561200857fe5b81526020016005820154815250509050428160a001818152505085816000018190525084816020019073ffffffffffffffffffffffffffffffffffffffff16908173ffffffffffffffffffffffffffffffffffffffff168152505083816040018181525050828160600181905250818160800190600681111561208757fe5b9081600681111561209457fe5b815250507f7e3eaa7effdcfe49a24fe2f552f654439198959781a66b3ca43366b0a8322e1d86868560405180806020018473ffffffffffffffffffffffffffffffffffffffff1673ffffffffffffffffffffffffffffffffffffffff16815260200180602001838103835286818151815260200191508051906020019080838360005b83811015612132578082015181840152602081019050612117565b50505050905090810190601f16801561215f5780820380516001836020036101000a031916815260200191505b50838103825284818151815260200191508051906020019080838360005b8381101561219857808201518184015260208101905061217d565b50505050905090810190601f1680156121c55780820380516001836020036101000a031916815260200191505b509550505050505060405180910390a1505050505050565b60008060008373ffffffffffffffffffffffffffffffffffffffff1673ffffffffffffffffffffffffffffffffffffffff168152602001908152602001600020549050919050565b600080606080600080600080600061223c8a613e48565b612291576040517f08c379a000000000000000000000000000000000000000000000000000000000815260040180806020018281038252602481526020018061502f6024913960400191505060405180910390fd5b612299614c97565b600a8b6040518082805190602001908083835b602083106122cf57805182526020820191506020810190506020830392506122ac565b6001836020036101000a038019825116818451168082178552505050505050905001915050908152602001604051809103902060405180610160016040529081600082018054600181600116156101000203166002900480601f0160208091040260200160405190810160405280929190818152602001828054600181600116156101000203166002900480156123a75780601f1061237c576101008083540402835291602001916123a7565b820191906000526020600020905b81548152906001019060200180831161238a57829003601f168201915b505050505081526020016001820160009054906101000a900473ffffffffffffffffffffffffffffffffffffffff1673ffffffffffffffffffffffffffffffffffffffff1673ffffffffffffffffffffffffffffffffffffffff168152602001600282018054600181600116156101000203166002900480601f01602080910402602001604051908101604052809291908181526020018280546001816001161561010002031660029004801561249f5780601f106124745761010080835404028352916020019161249f565b820191906000526020600020905b81548152906001019060200180831161248257829003601f168201915b5050505050815260200160038201548152602001600482018054600181600116156101000203166002900480601f01602080910402602001604051908101604052809291908181526020018280546001816001161561010002031660029004801561254b5780601f106125205761010080835404028352916020019161254b565b820191906000526020600020905b81548152906001019060200180831161252e57829003601f168201915b505050505081526020016005820160009054906101000a900460ff16151515158152602001600682015481526020016007820160009054906101000a900460ff161515151581526020016007820160019054906101000a900460ff1660068111156125b257fe5b60068111156125bd57fe5b815260200160088201548152602001600982015481525050905080602001518160600151826080015183604001518461010001518560c001518661012001514210876101400151886101200151995099509950995099509950995099509950509193959799909294969850565b61263381613e48565b80612643575061264281614705565b5b612698576040517f08c379a000000000000000000000000000000000000000000000000000000000815260040180806020018281038252602a815260200180614fae602a913960400191505060405180910390fd5b6126a181613e48565b156126bd576126af81612225565b5050505050505050506126dd565b6126c681614705565b156126dc576126d481612a9e565b505050505050505b5b50565b6060600080600a600685815481106126f457fe5b9060005260206000200160405180828054600181600116156101000203166002900480156127595780601f10612737576101008083540402835291820191612759565b820191906000526020600020905b815481529060010190602001808311612745575b5050915050908152602001604051809103902060070160019054906101000a900460ff16600681111561278857fe5b600b866040518082805190602001908083835b602083106127be578051825260208201915060208101905060208303925061279b565b6001836020036101000a038019825116818451168082178552505050505050905001915050908152602001604051809103902060040160009054906101000a900460ff16600681111561280d57fe5b14156129f4576006848154811061282057fe5b90600052602060002001600a6006868154811061283957fe5b90600052602060002001604051808280546001816001161561010002031660029004801561289e5780601f1061287c57610100808354040283529182019161289e565b820191906000526020600020905b81548152906001019060200180831161288a575b5050915050908152602001604051809103902060050160009054906101000a900460ff16600a600687815481106128d157fe5b9060005260206000200160405180828054600181600116156101000203166002900480156129365780601f10612914576101008083540402835291820191612936565b820191906000526020600020905b815481529060010190602001808311612922575b5050915050908152602001604051809103902060060154828054600181600116156101000203166002900480601f0160208091040260200160405190810160405280929190818152602001828054600181600116156101000203166002900480156129e25780601f106129b7576101008083540402835291602001916129e2565b820191906000526020600020905b8154815290600101906020018083116129c557829003601f168201915b505050505092509250925092506129f5565b5b9250925092565b606060048054600181600116156101000203166002900480601f016020809104026020016040519081016040528092919081815260200182805460018160011615610100020316600290048015612a945780601f10612a6957610100808354040283529160200191612a94565b820191906000526020600020905b815481529060010190602001808311612a7757829003601f168201915b5050505050905090565b600080600060606000806000612ab2614d96565b600b896040518082805190602001908083835b60208310612ae85780518252602082019150602081019050602083039250612ac5565b6001836020036101000a03801982511681845116808217855250505050505090500191505090815260200160405180910390206040518060c0016040529081600082018054600181600116156101000203166002900480601f016020809104026020016040519081016040528092919081815260200182805460018160011615610100020316600290048015612bbf5780601f10612b9457610100808354040283529160200191612bbf565b820191906000526020600020905b815481529060010190602001808311612ba257829003601f168201915b505050505081526020016001820160009054906101000a900473ffffffffffffffffffffffffffffffffffffffff1673ffffffffffffffffffffffffffffffffffffffff1673ffffffffffffffffffffffffffffffffffffffff16815260200160028201548152602001600382018054600181600116156101000203166002900480601f016020809104026020016040519081016040528092919081815260200182805460018160011615610100020316600290048015612cc15780601f10612c9657610100808354040283529160200191612cc1565b820191906000526020600020905b815481529060010190602001808311612ca457829003601f168201915b505050505081526020016004820160009054906101000a900460ff166006811115612ce857fe5b6006811115612cf357fe5b8152602001600582015481525050905080602001518160400151826080015183606001518460a00151600c8e6040518082805190602001908083835b60208310612d525780518252602082019150602081019050602083039250612d2f565b6001836020036101000a038019825116818451168082178552505050505050905001915050908152602001604051809103902054600d8f6040518082805190602001908083835b60208310612dbc5780518252602082019150602081019050602083039250612d99565b6001836020036101000a038019825116818451168082178552505050505050905001915050908152602001604051809103902054975097509750975097509750975050919395979092949650565b6000612ecd612e176140fd565b84612ec88560405180606001604052806025815260200161513e6025913960016000612e416140fd565b73ffffffffffffffffffffffffffffffffffffffff1673ffffffffffffffffffffffffffffffffffffffff16815260200190815260200160002060008a73ffffffffffffffffffffffffffffffffffffffff1673ffffffffffffffffffffffffffffffffffffffff168152602001908152602001600020546145bd9092919063ffffffff16565b614105565b6001905092915050565b6000612eeb612ee46140fd565b84846142fc565b6001905092915050565b6000600a846040518082805190602001908083835b60208310612f2d5780518252602082019150602081019050602083039250612f0a565b6001836020036101000a038019825116818451168082178552505050505050905001915050908152602001604051809103902060080154421115612ff1576000600a856040518082805190602001908083835b60208310612fa35780518252602082019150602081019050602083039250612f80565b6001836020036101000a038019825116818451168082178552505050505050905001915050908152602001604051809103902060070160006101000a81548160ff0219169083151502179055505b8173ffffffffffffffffffffffffffffffffffffffff16600b846040518082805190602001908083835b6020831061303e578051825260208201915060208101905060208303925061301b565b6001836020036101000a038019825116818451168082178552505050505050905001915050908152602001604051809103902060010160009054906101000a900473ffffffffffffffffffffffffffffffffffffffff1673ffffffffffffffffffffffffffffffffffffffff1614613101576040517f08c379a0000000000000000000000000000000000000000000000000000000008152600401808060200182810382526031815260200180614ffe6031913960400191505060405180910390fd5b600b836040518082805190602001908083835b602083106131375780518252602082019150602081019050602083039250613114565b6001836020036101000a038019825116818451168082178552505050505050905001915050908152602001604051809103902060040160009054906101000a900460ff16600681111561318657fe5b600a856040518082805190602001908083835b602083106131bc5780518252602082019150602081019050602083039250613199565b6001836020036101000a038019825116818451168082178552505050505050905001915050908152602001604051809103902060070160019054906101000a900460ff16600681111561320b57fe5b14613261576040517f08c379a0000000000000000000000000000000000000000000000000000000008152600401808060200182810382526025815260200180614f676025913960400191505060405180910390fd5b60001515600a856040518082805190602001908083835b6020831061329b5780518252602082019150602081019050602083039250613278565b6001836020036101000a038019825116818451168082178552505050505050905001915050908152602001604051809103902060070160009054906101000a900460ff16151514613337576040517f08c379a0000000000000000000000000000000000000000000000000000000008152600401808060200182810382526021815260200180614f056021913960400191505060405180910390fd5b60784201600a856040518082805190602001908083835b60208310613371578051825260208201915060208101905060208303925061334e565b6001836020036101000a038019825116818451168082178552505050505050905001915050908152602001604051809103902060080181905550600a846040518082805190602001908083835b602083106133e157805182526020820191506020810190506020830392506133be565b6001836020036101000a0380198251168184511680821785525050505050509050019150509081526020016040518091039020600801546009856040518082805190602001908083835b6020831061344e578051825260208201915060208101905060208303925061342b565b6001836020036101000a0380198251168184511680821785525050505050509050019150509081526020016040518091039020846040518082805190602001908083835b602083106134b55780518252602082019150602081019050602083039250613492565b6001836020036101000a038019825116818451168082178552505050505050905001915050908152602001604051809103902081905550826008856040518082805190602001908083835b602083106135235780518252602082019150602081019050602083039250613500565b6001836020036101000a03801982511681845116808217855250505050505090500191505090815260200160405180910390209080519060200190613569929190614d16565b507f80cb6ddff94379138f2950f686a962b33d3c134123c76298b558a221fb7892ba8484600160405180806020018060200184151515158152602001838103835286818151815260200191508051906020019080838360005b838110156135dd5780820151818401526020810190506135c2565b50505050905090810190601f16801561360a5780820380516001836020036101000a031916815260200191505b50838103825285818151815260200191508051906020019080838360005b83811015613643578082015181840152602081019050613628565b50505050905090810190601f1680156136705780820380516001836020036101000a031916815260200191505b509550505050505060405180910390a16001600a856040518082805190602001908083835b602083106136b85780518252602082019150602081019050602083039250613695565b6001836020036101000a038019825116818451168082178552505050505050905001915050908152602001604051809103902060070160006101000a81548160ff021916908315150217905590509392505050565b60606006828154811061371c57fe5b906000526020600020018054600181600116156101000203166002900480601f0160208091040260200160405190810160405280929190818152602001828054600181600116156101000203166002900480156137ba5780601f1061378f576101008083540402835291602001916137ba565b820191906000526020600020905b81548152906001019060200180831161379d57829003601f168201915b50505050509050919050565b6000600160008473ffffffffffffffffffffffffffffffffffffffff1673ffffffffffffffffffffffffffffffffffffffff16815260200190815260200160002060008373ffffffffffffffffffffffffffffffffffffffff1673ffffffffffffffffffffffffffffffffffffffff16815260200190815260200160002054905092915050565b6139586008846040518082805190602001908083835b602083106138865780518252602082019150602081019050602083039250613863565b6001836020036101000a03801982511681845116808217855250505050505090500191505090815260200160405180910390208054600181600116156101000203166002900480601f01602080910402602001604051908101604052809291908181526020018280546001816001161561010002031660029004801561394d5780601f106139225761010080835404028352916020019161394d565b820191906000526020600020905b81548152906001019060200180831161393057829003601f168201915b50505050508361481c565b6139ad576040517f08c379a0000000000000000000000000000000000000000000000000000000008152600401808060200182810382526041815260200180614f266041913960600191505060405180910390fd5b426009846040518082805190602001908083835b602083106139e457805182526020820191506020810190506020830392506139c1565b6001836020036101000a0380198251168184511680821785525050505050509050019150509081526020016040518091039020836040518082805190602001908083835b60208310613a4b5780518252602082019150602081019050602083039250613a28565b6001836020036101000a0380198251168184511680821785525050505050509050019150509081526020016040518091039020541115613c4c57600d826040518082805190602001908083835b60208310613abb5780518252602082019150602081019050602083039250613a98565b6001836020036101000a0380198251168184511680821785525050505050509050019150509081526020016040518091039020600081548092919060010191905055506008836040518082805190602001908083835b60208310613b345780518252602082019150602081019050602083039250613b11565b6001836020036101000a03801982511681845116808217855250505050505090500191505090815260200160405180910390206000613b739190614ded565b6009836040518082805190602001908083835b60208310613ba95780518252602082019150602081019050602083039250613b86565b6001836020036101000a0380198251168184511680821785525050505050509050019150509081526020016040518091039020826040518082805190602001908083835b60208310613c105780518252602082019150602081019050602083039250613bed565b6001836020036101000a038019825116818451168082178552505050505050905001915050908152602001604051809103902060009055613c58565b613c57838383614837565b5b505050565b613d168260068381548110613c6e57fe5b906000526020600020018054600181600116156101000203166002900480601f016020809104026020016040519081016040528092919081815260200182805460018160011615610100020316600290048015613d0c5780601f10613ce157610100808354040283529160200191613d0c565b820191906000526020600020905b815481529060010190602001808311613cef57829003601f168201915b505050505061481c565b15613d9b57600660016006805490500381548110613d3057fe5b9060005260206000200160068281548110613d4757fe5b906000526020600020019080546001816001161561010002031660029004613d70929190614e35565b506006805480613d7c57fe5b600190038181906000526020600020016000613d989190614ded565b90555b7f99e8530a350e2c0cf898a9351fc1993d12c6bf7e76c950ea10ad25d0077bf2f4826001604051808060200183151515158152602001828103825284818151815260200191508051906020019080838360005b83811015613e09578082015181840152602081019050613dee565b50505050905090810190601f168015613e365780820380516001836020036101000a031916815260200191505b50935050505060405180910390a15050565b6000806006805490501415613e605760009050613f71565b613f6e82600a846040518082805190602001908083835b60208310613e9a5780518252602082019150602081019050602083039250613e77565b6001836020036101000a03801982511681845116808217855250505050505090500191505090815260200160405180910390206000018054600181600116156101000203166002900480601f016020809104026020016040519081016040528092919081815260200182805460018160011615610100020316600290048015613f645780601f10613f3957610100808354040283529160200191613f64565b820191906000526020600020905b815481529060010190602001808311613f4757829003601f168201915b505050505061481c565b90505b919050565b6000600a826040518082805190602001908083835b60208310613fae5780518252602082019150602081019050602083039250613f8b565b6001836020036101000a038019825116818451168082178552505050505050905001915050908152602001604051809103902060010160009054906101000a900473ffffffffffffffffffffffffffffffffffffffff1673ffffffffffffffffffffffffffffffffffffffff168373ffffffffffffffffffffffffffffffffffffffff1614806140f55750600b826040518082805190602001908083835b6020831061406f578051825260208201915060208101905060208303925061404c565b6001836020036101000a038019825116818451168082178552505050505050905001915050908152602001604051809103902060010160009054906101000a900473ffffffffffffffffffffffffffffffffffffffff1673ffffffffffffffffffffffffffffffffffffffff168373ffffffffffffffffffffffffffffffffffffffff16145b905092915050565b600033905090565b600073ffffffffffffffffffffffffffffffffffffffff168373ffffffffffffffffffffffffffffffffffffffff16141561418b576040517f08c379a000000000000000000000000000000000000000000000000000000000815260040180806020018281038252602481526020018061511a6024913960400191505060405180910390fd5b600073ffffffffffffffffffffffffffffffffffffffff168273ffffffffffffffffffffffffffffffffffffffff161415614211576040517f08c379a0000000000000000000000000000000000000000000000000000000008152600401808060200182810382526022815260200180614f8c6022913960400191505060405180910390fd5b80600160008573ffffffffffffffffffffffffffffffffffffffff1673ffffffffffffffffffffffffffffffffffffffff16815260200190815260200160002060008473ffffffffffffffffffffffffffffffffffffffff1673ffffffffffffffffffffffffffffffffffffffff168152602001908152602001600020819055508173ffffffffffffffffffffffffffffffffffffffff168373ffffffffffffffffffffffffffffffffffffffff167f8c5be1e5ebec7d5bd14f71427d1e84f3dd0314c0f7b2291e5b200ac8c7c3b925836040518082815260200191505060405180910390a3505050565b600073ffffffffffffffffffffffffffffffffffffffff168373ffffffffffffffffffffffffffffffffffffffff161415614382576040517f08c379a00000000000000000000000000000000000000000000000000000000081526004018080602001828103825260258152602001806150f56025913960400191505060405180910390fd5b600073ffffffffffffffffffffffffffffffffffffffff168273ffffffffffffffffffffffffffffffffffffffff161415614408576040517f08c379a0000000000000000000000000000000000000000000000000000000008152600401808060200182810382526023815260200180614ee26023913960400191505060405180910390fd5b614413838383614c92565b61447e81604051806060016040528060268152602001614fd8602691396000808773ffffffffffffffffffffffffffffffffffffffff1673ffffffffffffffffffffffffffffffffffffffff168152602001908152602001600020546145bd9092919063ffffffff16565b6000808573ffffffffffffffffffffffffffffffffffffffff1673ffffffffffffffffffffffffffffffffffffffff16815260200190815260200160002081905550614511816000808573ffffffffffffffffffffffffffffffffffffffff1673ffffffffffffffffffffffffffffffffffffffff1681526020019081526020016000205461467d90919063ffffffff16565b6000808473ffffffffffffffffffffffffffffffffffffffff1673ffffffffffffffffffffffffffffffffffffffff168152602001908152602001600020819055508173ffffffffffffffffffffffffffffffffffffffff168373ffffffffffffffffffffffffffffffffffffffff167fddf252ad1be2c89b69c2b068fc378daa952ba7f163c4a11628f55a4df523b3ef836040518082815260200191505060405180910390a3505050565b600083831115829061466a576040517f08c379a00000000000000000000000000000000000000000000000000000000081526004018080602001828103825283818151815260200191508051906020019080838360005b8381101561462f578082015181840152602081019050614614565b50505050905090810190601f16801561465c5780820380516001836020036101000a031916815260200191505b509250505060405180910390fd5b5060008385039050809150509392505050565b6000808284019050838110156146fb576040517f08c379a000000000000000000000000000000000000000000000000000000000815260040180806020018281038252601b8152602001807f536166654d6174683a206164646974696f6e206f766572666c6f77000000000081525060200191505060405180910390fd5b8091505092915050565b600061481582600b846040518082805190602001908083835b60208310614741578051825260208201915060208101905060208303925061471e565b6001836020036101000a03801982511681845116808217855250505050505090500191505090815260200160405180910390206000018054600181600116156101000203166002900480601f01602080910402602001604051908101604052809291908181526020018280546001816001161561010002031660029004801561480b5780601f106147e05761010080835404028352916020019161480b565b820191906000526020600020905b8154815290600101906020018083116147ee57829003601f168201915b505050505061481c565b9050919050565b60008180519060200120838051906020012014905092915050565b82600a816040518082805190602001908083835b6020831061486e578051825260208201915060208101905060208303925061484b565b6001836020036101000a0380198251168184511680821785525050505050509050019150509081526020016040518091039020600801544211156148fd576040517f08c379a00000000000000000000000000000000000000000000000000000000081526004018080602001828103825260368152602001806150536036913960400191505060405180910390fd5b6000614907611c0c565b60ff16600a0a600a866040518082805190602001908083835b602083106149435780518252602082019150602081019050602083039250614920565b6001836020036101000a0380198251168184511680821785525050505050509050019150509081526020016040518091039020600601540290506149aa600760009054906101000a900473ffffffffffffffffffffffffffffffffffffffff1684836142fc565b600c846040518082805190602001908083835b602083106149e057805182526020820191506020810190506020830392506149bd565b6001836020036101000a0380198251168184511680821785525050505050509050019150509081526020016040518091039020600081548092919060010191905055506008856040518082805190602001908083835b60208310614a595780518252602082019150602081019050602083039250614a36565b6001836020036101000a03801982511681845116808217855250505050505090500191505090815260200160405180910390206000614a989190614ded565b6009856040518082805190602001908083835b60208310614ace5780518252602082019150602081019050602083039250614aab565b6001836020036101000a0380198251168184511680821785525050505050509050019150509081526020016040518091039020846040518082805190602001908083835b60208310614b355780518252602082019150602081019050602083039250614b12565b6001836020036101000a038019825116818451168082178552505050505050905001915050908152602001604051809103902060009055600a856040518082805190602001908083835b60208310614ba25780518252602082019150602081019050602083039250614b7f565b6001836020036101000a038019825116818451168082178552505050505050905001915050908152602001604051809103902060008082016000614be69190614ded565b6001820160006101000a81549073ffffffffffffffffffffffffffffffffffffffff0219169055600282016000614c1d9190614ded565b6003820160009055600482016000614c359190614ded565b6005820160006101000a81549060ff021916905560068201600090556007820160006101000a81549060ff02191690556007820160016101000a81549060ff02191690556008820160009055600982016000905550505050505050565b505050565b60405180610160016040528060608152602001600073ffffffffffffffffffffffffffffffffffffffff1681526020016060815260200160008152602001606081526020016000151581526020016000815260200160001515815260200160006006811115614d0257fe5b815260200160008152602001600081525090565b828054600181600116156101000203166002900490600052602060002090601f016020900481019282601f10614d5757805160ff1916838001178555614d85565b82800160010185558215614d85579182015b82811115614d84578251825591602001919060010190614d69565b5b509050614d929190614ebc565b5090565b6040518060c0016040528060608152602001600073ffffffffffffffffffffffffffffffffffffffff168152602001600081526020016060815260200160006006811115614de057fe5b8152602001600081525090565b50805460018160011615610100020316600290046000825580601f10614e135750614e32565b601f016020900490600052602060002090810190614e319190614ebc565b5b50565b828054600181600116156101000203166002900490600052602060002090601f016020900481019282601f10614e6e5780548555614eab565b82800160010185558215614eab57600052602060002091601f016020900482015b82811115614eaa578254825591600101919060010190614e8f565b5b509050614eb89190614ebc565b5090565b614ede91905b80821115614eda576000816000905550600101614ec2565b5090565b9056fe45524332303a207472616e7366657220746f20746865207a65726f2061646472657373436861726974792068617320616c7265616479206265656e2073656c656374656452657175657374206973206e6f742073656c656374656420627920436f6e74726163746f722070726f76696465643a204d61726b656420494e434f4d504c45544543617465676f7269657320646f206e6f74206d6174636820617070726f7072696174656c7945524332303a20617070726f766520746f20746865207a65726f20616464726573734e6f20696e666f726d6174696f6e206c697374656420666f72205365617263682070726f76696465642145524332303a207472616e7366657220616d6f756e7420657863656564732062616c616e6365436f6e74726163746f72207469746c6520646f6573206e6f74206d6174636820416464726573732070726f7669646564214368617269747920726571756573746564206973206e6f742077697468696e206c69737454696d6520746f20636f6d706c65746520726571756573742069732075702e20546f6b656e207265776172642072657665727465642157696c6c206e6f7420616c6c6f77206475706c69636174652043686172697469657345524332303a207472616e7366657220616d6f756e74206578636565647320616c6c6f77616e636557696c6c206e6f7420616c6c6f77206475706c696361746520537570706c6965727345524332303a207472616e736665722066726f6d20746865207a65726f206164647265737345524332303a20617070726f76652066726f6d20746865207a65726f206164647265737345524332303a2064656372656173656420616c6c6f77616e63652062656c6f77207a65726fa26469706673582212203c1d41e1f28c0d4deed17f3c05a4aadd88b5d9222cfb9785fd942929fb19b2b864736f6c63430006070033",
  "immutableReferences": {},
  "source": "pragma solidity 0.6.7;\n\n//import \"https://github.com/OpenZeppelin/openzeppelin-contracts/blob/master/contracts/token/ERC20/ERC20.sol\";\n\n//import \"github/OpenZeppelin/openzeppelin-contracts/contracts/token/ERC20/ERC20.sol\";\n\nimport \"@openzeppelin/contracts/token/ERC20/ERC20.sol\";\n\ncontract RequestChain is ERC20 {\n    enum Category {\n        Food,\n        Clothing,\n        Furniture,\n        Education,\n        Transportation,\n        Medical,\n        Funding\n    }\n\n    struct Charity {\n        string charityName;\n        address ID;\n        string request;\n        uint256 members;\n        string primaryContact;\n        bool urgent;\n        uint256 tokenReward;\n        bool isSelected;\n        Category category;\n        uint256 expiry;\n        uint256 entryTime;\n    }\n\n    struct Supplier {\n        string supplierName;\n        address ID;\n        uint256 members;\n        string primaryContact;\n        Category category;\n        uint256 entryTime;\n    }\n\n    string[] private charityArr;\n    address private owner;\n    mapping(string => string) private char2Supp;\n    mapping(string => mapping(string => uint256)) private timeLimit;\n    mapping(string => Charity) private Charities;\n    mapping(string => Supplier) private Suppliers;\n    mapping(string => uint256) private complete;\n    mapping(string => uint256) private incomplete;\n\n    event LogNewCharity(\n        string charityName,\n        address ID,\n        string request,\n        string primaryContact,\n        bool urgent,\n        uint256 tokenReward\n    );\n    event LogNewSupplier(\n        string supplierName,\n        address ID,\n        string primaryContact\n    );\n    event LogSelectCharity(\n        string charityName,\n        string supplier,\n        bool completedSelection\n    );\n    event LogDeleteCharity(string charityName, bool completedDeletion);\n\n    constructor() public ERC20(\"Charity Token\", \"CTKN\") {\n        // Initially assign all tokens to the contract's creator.\n        owner = msg.sender;\n        uint256 initialSupply = 1000000;\n        _mint(owner, initialSupply);\n    }\n\n    modifier timeCheck(string memory charity) {\n        require(\n            block.timestamp <= Charities[charity].expiry,\n            \"Time to complete request is up. Token reward reverted!\"\n        );\n        _;\n    }\n\n    function comp(string memory _a, string memory _b)\n        internal\n        pure\n        returns (bool)\n    {\n        return keccak256(bytes(_a)) == keccak256(bytes(_b));\n    }\n\n    function isCharity(string memory charity) internal view returns (bool) {\n        if (charityArr.length == 0) return false;\n        return comp(charity, Charities[charity].charityName);\n    }\n\n    function isSupplier(string memory supplier) internal view returns (bool) {\n        return comp(supplier, Suppliers[supplier].supplierName);\n    }\n\n    function isAddress(address ID, string memory name)\n        internal\n        view\n        returns (bool)\n    {\n        return ID == Charities[name].ID || ID == Suppliers[name].ID;\n    }\n\n    function addRequest(\n        string memory charity,\n        address ID,\n        string memory request,\n        uint256 members,\n        string memory primaryContact,\n        bool urgent,\n        Category category\n    ) public {\n        require(!isCharity(charity), \"Will not allow duplicate Charities\");\n        require(!isAddress(ID, charity), \"Will not allow duplicate IDs\");\n        Charity memory _charity = Charities[charity];\n        _charity.charityName = charity;\n        _charity.ID = ID;\n        _charity.members = members;\n        _charity.request = request;\n        _charity.primaryContact = primaryContact;\n        _charity.urgent = urgent;\n        if (urgent == true) {\n            _charity.tokenReward = 4;\n        } else {\n            _charity.tokenReward = 2;\n        }\n        _charity.category = category;\n        _charity.isSelected = false;\n        charityArr.push(charity);\n        _charity.entryTime = now;\n        emit LogNewCharity(\n            charity,\n            ID,\n            request,\n            primaryContact,\n            urgent,\n            _charity.tokenReward\n        );\n    }\n\n    function getCharity(string memory charity)\n        public\n        view\n        returns (\n            address ID,\n            uint256 members,\n            string memory primaryContact,\n            string memory request,\n            Category category,\n            uint256 tokenReward,\n            bool isSelected,\n            uint256 timestamp,\n            uint256 deadline\n        )\n    {\n        require(isCharity(charity), \"Charity requested is not within list\");\n        Charity memory _charity = Charities[charity];\n        return (\n            _charity.ID,\n            _charity.members,\n            _charity.primaryContact,\n            _charity.request,\n            _charity.category,\n            _charity.tokenReward,\n            now < _charity.expiry,\n            _charity.entryTime,\n            _charity.expiry\n        );\n    }\n\n    function requestCount() public view returns (uint256) {\n        return charityArr.length;\n    }\n\n    function getRequest(uint256 i) public view returns(string memory charity) {\n        return charityArr[i];\n    }\n\n    function addSupplier(\n        string memory supplier,\n        address ID,\n        uint256 members,\n        string memory primaryContact,\n        Category category\n    ) public {\n        require(!isSupplier(supplier), \"Will not allow duplicate Suppliers\");\n        require(!isAddress(ID, supplier), \"Will not allow duplicate IDs\");\n        Supplier memory _supplier = Suppliers[supplier];\n        _supplier.entryTime = now;\n        _supplier.supplierName = supplier;\n        _supplier.ID = ID;\n        _supplier.members = members;\n        _supplier.primaryContact = primaryContact;\n        _supplier.category = category;\n\n        emit LogNewSupplier(supplier, ID, primaryContact);\n    }\n\n    // needs for loop\n    function pendingRequests(string memory supplier, uint256 i)\n        public\n        view\n        returns (\n            string memory charity,\n            bool urgency,\n            uint256 reward\n        )\n    {\n        if (Suppliers[supplier].category == Charities[charityArr[i]].category) {\n            return (\n                charityArr[i],\n                Charities[charityArr[i]].urgent,\n                Charities[charityArr[i]].tokenReward\n            );\n        }\n    }\n\n    function selectCharity(\n        string memory charity,\n        string memory supplier,\n        address suppID\n    ) public returns (bool isSelected) {\n        if (now > Charities[charity].expiry) {\n            Charities[charity].isSelected = false;\n        }\n        require(\n            Suppliers[supplier].ID == suppID,\n            \"Contractor title does not match Address provided!\"\n        );\n        require(\n            Charities[charity].category == Suppliers[supplier].category,\n            \"Categories do not match appropriately\"\n        );\n        require(\n            Charities[charity].isSelected == false,\n            \"Charity has already been selected\"\n        );\n        Charities[charity].expiry = block.timestamp + 2 minutes;\n        timeLimit[charity][supplier] = Charities[charity].expiry;\n        char2Supp[charity] = supplier;\n        emit LogSelectCharity(charity, supplier, true);\n        return Charities[charity].isSelected = true;\n    }\n\n    function delivery(\n        string memory charity,\n        string memory supplier,\n        address suppID\n    ) public {\n        require(\n            comp(char2Supp[charity], supplier),\n            \"Request is not selected by Contractor provided: Marked INCOMPLETE\"\n        );\n        if (timeLimit[charity][supplier] > now) {\n            incomplete[supplier]++;\n            delete char2Supp[charity];\n            delete timeLimit[charity][supplier];\n        } else {\n            deliverRequest(charity, supplier, suppID);\n        }\n    }\n\n    function deliverRequest(\n        string memory charity,\n        string memory supplier,\n        address suppID\n    ) private timeCheck(charity) {\n        uint256 tokens = Charities[charity].tokenReward *\n            uint256(10)**decimals();\n        _transfer(owner, suppID, tokens);\n        complete[supplier]++;\n        delete char2Supp[charity];\n        delete timeLimit[charity][supplier];\n        delete Charities[charity];\n    }\n\n    //needs for loop\n    function popRequest(string memory charity, uint256 i) public {\n        if (comp(charity, charityArr[i])) {\n            charityArr[i] = charityArr[charityArr.length - 1];\n            charityArr.pop();\n        }\n        emit LogDeleteCharity(charity, true);\n    }\n\n    function searchInfo(string memory x) public view {\n        require(\n            isCharity(x) || isSupplier(x),\n            \"No information listed for Search provided!\"\n        );\n        if (isCharity(x)) {\n            getCharity(x);\n        } else if (isSupplier(x)) {\n            getSupplier(x);\n        }\n    }\n\n    function getSupplier(string memory x)\n        public\n        view\n        returns (\n            address supplierID,\n            uint256 members,\n            Category category,\n            string memory primaryContact,\n            uint256 timestamp,\n            uint256 completedRequests,\n            uint256 incompletedRequests\n        )\n    {\n        Supplier memory _supplier = Suppliers[x];\n        return (\n            _supplier.ID,\n            _supplier.members,\n            _supplier.category,\n            _supplier.primaryContact,\n            _supplier.entryTime,\n            complete[x],\n            incomplete[x]\n        );\n    }\n}\n",
  "sourcePath": "/Users/Beth/git/charity2/contracts/RequestChain.sol",
  "compiler": {
    "name": "solc",
    "version": "0.6.7+commit.b8d736ae.Emscripten.clang"
  },
  "schemaVersion": "3.2.3",
  "updatedAt": "2020-08-02T00:06:12.815Z",
  "devdoc": {
    "methods": {
      "allowance(address,address)": {
        "details": "See {IERC20-allowance}."
      },
      "approve(address,uint256)": {
        "details": "See {IERC20-approve}.     * Requirements:     * - `spender` cannot be the zero address."
      },
      "balanceOf(address)": {
        "details": "See {IERC20-balanceOf}."
      },
      "decimals()": {
        "details": "Returns the number of decimals used to get its user representation. For example, if `decimals` equals `2`, a balance of `505` tokens should be displayed to a user as `5,05` (`505 / 10 ** 2`).     * Tokens usually opt for a value of 18, imitating the relationship between Ether and Wei. This is the value {ERC20} uses, unless {_setupDecimals} is called.     * NOTE: This information is only used for _display_ purposes: it in no way affects any of the arithmetic of the contract, including {IERC20-balanceOf} and {IERC20-transfer}."
      },
      "decreaseAllowance(address,uint256)": {
        "details": "Atomically decreases the allowance granted to `spender` by the caller.     * This is an alternative to {approve} that can be used as a mitigation for problems described in {IERC20-approve}.     * Emits an {Approval} event indicating the updated allowance.     * Requirements:     * - `spender` cannot be the zero address. - `spender` must have allowance for the caller of at least `subtractedValue`."
      },
      "increaseAllowance(address,uint256)": {
        "details": "Atomically increases the allowance granted to `spender` by the caller.     * This is an alternative to {approve} that can be used as a mitigation for problems described in {IERC20-approve}.     * Emits an {Approval} event indicating the updated allowance.     * Requirements:     * - `spender` cannot be the zero address."
      },
      "name()": {
        "details": "Returns the name of the token."
      },
      "symbol()": {
        "details": "Returns the symbol of the token, usually a shorter version of the name."
      },
      "totalSupply()": {
        "details": "See {IERC20-totalSupply}."
      },
      "transfer(address,uint256)": {
        "details": "See {IERC20-transfer}.     * Requirements:     * - `recipient` cannot be the zero address. - the caller must have a balance of at least `amount`."
      },
      "transferFrom(address,address,uint256)": {
        "details": "See {IERC20-transferFrom}.     * Emits an {Approval} event indicating the updated allowance. This is not required by the EIP. See the note at the beginning of {ERC20};     * Requirements: - `sender` and `recipient` cannot be the zero address. - `sender` must have a balance of at least `amount`. - the caller must have allowance for ``sender``'s tokens of at least `amount`."
      }
    }
  },
  "userdoc": {
    "methods": {}
  }
}